{
  "contractName": "AmbassadorNomination",
  "abi": [
    {
      "anonymous": false,
      "inputs": [
        {
          "indexed": true,
          "internalType": "address",
          "name": "nominee",
          "type": "address"
        }
      ],
      "name": "AmbassadorNominated",
      "type": "event"
    },
    {
      "anonymous": false,
      "inputs": [
        {
          "indexed": true,
          "internalType": "address",
          "name": "citizen",
          "type": "address"
        },
        {
          "indexed": false,
          "internalType": "uint256",
          "name": "r",
          "type": "uint256"
        },
        {
          "indexed": false,
          "internalType": "uint256",
          "name": "h",
          "type": "uint256"
        }
      ],
      "name": "CommitmentMade",
      "type": "event"
    },
    {
      "inputs": [],
      "name": "G",
      "outputs": [
        {
          "internalType": "uint256",
          "name": "",
          "type": "uint256"
        }
      ],
      "stateMutability": "view",
      "type": "function",
      "constant": true
    },
    {
      "inputs": [],
      "name": "MAX_ITERATIONS",
      "outputs": [
        {
          "internalType": "uint256",
          "name": "",
          "type": "uint256"
        }
      ],
      "stateMutability": "view",
      "type": "function",
      "constant": true
    },
    {
      "inputs": [],
      "name": "P",
      "outputs": [
        {
          "internalType": "uint256",
          "name": "",
          "type": "uint256"
        }
      ],
      "stateMutability": "view",
      "type": "function",
      "constant": true
    },
    {
      "inputs": [
        {
          "internalType": "address",
          "name": "",
          "type": "address"
        }
      ],
      "name": "commitments",
      "outputs": [
        {
          "internalType": "uint256",
          "name": "r",
          "type": "uint256"
        },
        {
          "internalType": "uint256",
          "name": "h",
          "type": "uint256"
        }
      ],
      "stateMutability": "view",
      "type": "function",
      "constant": true
    },
    {
      "inputs": [
        {
          "internalType": "address",
          "name": "",
          "type": "address"
        }
      ],
      "name": "nominations",
      "outputs": [
        {
          "internalType": "uint256",
          "name": "h",
          "type": "uint256"
        },
        {
          "internalType": "address",
          "name": "nominee",
          "type": "address"
        }
      ],
      "stateMutability": "view",
      "type": "function",
      "constant": true
    },
    {
      "inputs": [
        {
          "internalType": "uint256",
          "name": "_r",
          "type": "uint256"
        },
        {
          "internalType": "uint256",
          "name": "_h",
          "type": "uint256"
        }
      ],
      "name": "makeCommitment",
      "outputs": [],
      "stateMutability": "nonpayable",
      "type": "function"
    },
    {
      "inputs": [
        {
          "internalType": "address",
          "name": "_nominee",
          "type": "address"
        }
      ],
      "name": "nominateAmbassador",
      "outputs": [],
      "stateMutability": "nonpayable",
      "type": "function"
    }
  ],
  "bytecode": "0x608060405234801561000f575f80fd5b506108568061001d5f395ff3fe608060405234801561000f575f80fd5b506004361061007b575f3560e01c80638b8fbd92116100595780638b8fbd92146100d7578063b19e828a146100f5578063e8fcf72314610111578063f95baf26146101425761007b565b80631422a2451461007f5780631d92c26d1461009b5780636fecb623146100b9575b5f80fd5b610099600480360381019061009491906105d3565b610173565b005b6100a3610446565b6040516100b09190610616565b60405180910390f35b6100c161044b565b6040516100ce9190610616565b60405180910390f35b6100df610450565b6040516100ec9190610616565b60405180910390f35b61010f600480360381019061010a9190610659565b61045d565b005b61012b600480360381019061012691906105d3565b610517565b604051610139929190610697565b60405180910390f35b61015c600480360381019061015791906105d3565b610536565b60405161016a9291906106cd565b60405180910390f35b5f805f8373ffffffffffffffffffffffffffffffffffffffff1673ffffffffffffffffffffffffffffffffffffffff1681526020019081526020015f205f0154036101f3576040517f08c379a00000000000000000000000000000000000000000000000000000000081526004016101ea90610774565b60405180910390fd5b5f73ffffffffffffffffffffffffffffffffffffffff1660015f8373ffffffffffffffffffffffffffffffffffffffff1673ffffffffffffffffffffffffffffffffffffffff1681526020019081526020015f206001015f9054906101000a900473ffffffffffffffffffffffffffffffffffffffff1673ffffffffffffffffffffffffffffffffffffffff16146102c0576040517f08c379a00000000000000000000000000000000000000000000000000000000081526004016102b790610802565b60405180910390fd5b5f805f8373ffffffffffffffffffffffffffffffffffffffff1673ffffffffffffffffffffffffffffffffffffffff1681526020019081526020015f205f015490505f805f8473ffffffffffffffffffffffffffffffffffffffff1673ffffffffffffffffffffffffffffffffffffffff1681526020019081526020015f2060010154905060405180604001604052808281526020018473ffffffffffffffffffffffffffffffffffffffff1681525060015f8573ffffffffffffffffffffffffffffffffffffffff1673ffffffffffffffffffffffffffffffffffffffff1681526020019081526020015f205f820151815f01556020820151816001015f6101000a81548173ffffffffffffffffffffffffffffffffffffffff021916908373ffffffffffffffffffffffffffffffffffffffff1602179055509050508273ffffffffffffffffffffffffffffffffffffffff167fbc0b382ea7e3efe3fefab9337fb4a1e06fe08aef3db8d3431f60b14585d49fad60405160405180910390a2505050565b606481565b600281565b6833e7ef9cabbaf6c56f81565b6040518060400160405280838152602001828152505f803373ffffffffffffffffffffffffffffffffffffffff1673ffffffffffffffffffffffffffffffffffffffff1681526020019081526020015f205f820151815f0155602082015181600101559050503373ffffffffffffffffffffffffffffffffffffffff167fbce08e32a1b22035be3643a99d8d59035023ecd55703f4b0fa1eb1f6490fb3a4838360405161050b929190610697565b60405180910390a25050565b5f602052805f5260405f205f91509050805f0154908060010154905082565b6001602052805f5260405f205f91509050805f015490806001015f9054906101000a900473ffffffffffffffffffffffffffffffffffffffff16905082565b5f80fd5b5f73ffffffffffffffffffffffffffffffffffffffff82169050919050565b5f6105a282610579565b9050919050565b6105b281610598565b81146105bc575f80fd5b50565b5f813590506105cd816105a9565b92915050565b5f602082840312156105e8576105e7610575565b5b5f6105f5848285016105bf565b91505092915050565b5f819050919050565b610610816105fe565b82525050565b5f6020820190506106295f830184610607565b92915050565b610638816105fe565b8114610642575f80fd5b50565b5f813590506106538161062f565b92915050565b5f806040838503121561066f5761066e610575565b5b5f61067c85828601610645565b925050602061068d85828601610645565b9150509250929050565b5f6040820190506106aa5f830185610607565b6106b76020830184610607565b9392505050565b6106c781610598565b82525050565b5f6040820190506106e05f830185610607565b6106ed60208301846106be565b9392505050565b5f82825260208201905092915050565b7f4e6f6d696e656520686173206e6f74206d616465206120636f6d6d69746d656e5f8201527f7400000000000000000000000000000000000000000000000000000000000000602082015250565b5f61075e6021836106f4565b915061076982610704565b604082019050919050565b5f6020820190508181035f83015261078b81610752565b9050919050565b7f4e6f6d696e65652068617320616c7265616479206265656e206e6f6d696e61745f8201527f6564000000000000000000000000000000000000000000000000000000000000602082015250565b5f6107ec6022836106f4565b91506107f782610792565b604082019050919050565b5f6020820190508181035f830152610819816107e0565b905091905056fea2646970667358221220212bf446c5bd882dbd3b201cb36d71067a76fb09103b4c371dbef2d7af8e0c1364736f6c63430008150033",
  "immutableReferences": {},
  "source": "contract AmbassadorNomination {\n    // Public parameters\n    uint256 constant public G = 2; // Generator for the group\n    uint256 constant public P = 957496696762772407663; // Prime modulus\n    uint256 constant public MAX_ITERATIONS = 100;\n\n    // Struct to represent a commitment\n    struct Commitment {\n        uint256 r;\n        uint256 h;\n    }\n\n    // Struct to represent a nomination\n    struct Nomination {\n        uint256 h;\n        address nominee;\n    }\n\n    // Mapping of commitments to nominations\n    mapping(address => Commitment) public commitments;\n\n    // Mapping of nominees to nominations\n    mapping(address => Nomination) public nominations;\n\n    // Event emitted when a citizen makes a commitment\n    event CommitmentMade(address indexed citizen, uint256 r, uint256 h);\n\n    // Event emitted when a citizen is nominated as an ambassador\n    event AmbassadorNominated(address indexed nominee);\n\n\n    // Function to make a commitment\n    function makeCommitment(uint256 _r, uint256 _h) external {\n        commitments[msg.sender] = Commitment(_r, _h);\n        emit CommitmentMade(msg.sender, _r, _h);\n    }\n\n\n    // Function to nominate a citizen as an ambassador\n    function nominateAmbassador(address _nominee) external {\n        require(commitments[_nominee].r != 0, \"Nominee has not made a commitment\");\n        require(nominations[_nominee].nominee == address(0), \"Nominee has already been nominated\");\n\n        uint256 r = commitments[_nominee].r;\n        uint256 h = commitments[_nominee].h;\n\n        // put in the verifyable ZKP algorithm here.\n\n        nominations[_nominee] = Nomination(h, _nominee);\n        emit AmbassadorNominated(_nominee);\n    }\n\n}\n\n",
  "sourcePath": "/Users/shreedharpawar/Buidl/renaissance-contracts/contracts/nominateAmbassador.sol",
  "compiler": {
    "name": "solc",
    "version": "0.8.21+commit.d9974bed.Emscripten.clang"
  },
  "schemaVersion": "3.4.16",
  "updatedAt": "2024-03-02T03:50:26.133Z",
  "networkType": "ethereum",
  "devdoc": {
    "kind": "dev",
    "methods": {},
    "version": 1
  },
  "userdoc": {
    "kind": "user",
    "methods": {},
    "version": 1
  }
}