{
  "contractName": "GrantGovernance",
  "abi": [
    {
      "anonymous": false,
      "inputs": [
        {
          "indexed": true,
          "internalType": "address",
          "name": "previousOwner",
          "type": "address"
        },
        {
          "indexed": true,
          "internalType": "address",
          "name": "newOwner",
          "type": "address"
        }
      ],
      "name": "OwnershipTransferred",
      "type": "event"
    },
    {
      "anonymous": false,
      "inputs": [
        {
          "indexed": true,
          "internalType": "uint256",
          "name": "proposalId",
          "type": "uint256"
        },
        {
          "indexed": false,
          "internalType": "string",
          "name": "title",
          "type": "string"
        },
        {
          "indexed": false,
          "internalType": "address",
          "name": "creator",
          "type": "address"
        }
      ],
      "name": "ProposalCreated",
      "type": "event"
    },
    {
      "anonymous": false,
      "inputs": [
        {
          "indexed": true,
          "internalType": "uint256",
          "name": "proposalId",
          "type": "uint256"
        },
        {
          "indexed": false,
          "internalType": "bool",
          "name": "executed",
          "type": "bool"
        }
      ],
      "name": "ProposalExecuted",
      "type": "event"
    },
    {
      "anonymous": false,
      "inputs": [
        {
          "indexed": true,
          "internalType": "uint256",
          "name": "proposalId",
          "type": "uint256"
        },
        {
          "indexed": true,
          "internalType": "address",
          "name": "staker",
          "type": "address"
        },
        {
          "indexed": false,
          "internalType": "uint256",
          "name": "amount",
          "type": "uint256"
        }
      ],
      "name": "TokensStaked",
      "type": "event"
    },
    {
      "anonymous": false,
      "inputs": [
        {
          "indexed": true,
          "internalType": "uint256",
          "name": "proposalId",
          "type": "uint256"
        },
        {
          "indexed": true,
          "internalType": "address",
          "name": "voter",
          "type": "address"
        },
        {
          "indexed": false,
          "internalType": "bool",
          "name": "inFavor",
          "type": "bool"
        }
      ],
      "name": "Voted",
      "type": "event"
    },
    {
      "inputs": [
        {
          "internalType": "address",
          "name": "",
          "type": "address"
        }
      ],
      "name": "citizens",
      "outputs": [
        {
          "internalType": "bool",
          "name": "isActive",
          "type": "bool"
        },
        {
          "internalType": "enum GrantGovernance.CitizenStatus",
          "name": "status",
          "type": "uint8"
        },
        {
          "internalType": "uint256",
          "name": "votingPower",
          "type": "uint256"
        }
      ],
      "stateMutability": "view",
      "type": "function",
      "constant": true
    },
    {
      "inputs": [],
      "name": "owner",
      "outputs": [
        {
          "internalType": "address",
          "name": "",
          "type": "address"
        }
      ],
      "stateMutability": "view",
      "type": "function",
      "constant": true
    },
    {
      "inputs": [
        {
          "internalType": "uint256",
          "name": "",
          "type": "uint256"
        }
      ],
      "name": "proposals",
      "outputs": [
        {
          "internalType": "uint256",
          "name": "Id",
          "type": "uint256"
        },
        {
          "internalType": "string",
          "name": "title",
          "type": "string"
        },
        {
          "internalType": "string",
          "name": "description",
          "type": "string"
        },
        {
          "internalType": "string",
          "name": "category",
          "type": "string"
        },
        {
          "internalType": "string",
          "name": "body",
          "type": "string"
        },
        {
          "internalType": "string",
          "name": "estBudget",
          "type": "string"
        },
        {
          "internalType": "address",
          "name": "creator",
          "type": "address"
        },
        {
          "internalType": "uint256",
          "name": "forVotes",
          "type": "uint256"
        },
        {
          "internalType": "uint256",
          "name": "againstVotes",
          "type": "uint256"
        },
        {
          "internalType": "uint256",
          "name": "tokensStaked",
          "type": "uint256"
        },
        {
          "internalType": "bool",
          "name": "executed",
          "type": "bool"
        },
        {
          "internalType": "bool",
          "name": "revoked",
          "type": "bool"
        }
      ],
      "stateMutability": "view",
      "type": "function",
      "constant": true
    },
    {
      "inputs": [],
      "name": "renounceOwnership",
      "outputs": [],
      "stateMutability": "nonpayable",
      "type": "function"
    },
    {
      "inputs": [
        {
          "internalType": "uint256",
          "name": "",
          "type": "uint256"
        },
        {
          "internalType": "address",
          "name": "",
          "type": "address"
        }
      ],
      "name": "stakePerCitizen",
      "outputs": [
        {
          "internalType": "uint256",
          "name": "tokensStaked",
          "type": "uint256"
        },
        {
          "internalType": "uint256",
          "name": "fiatStaked",
          "type": "uint256"
        },
        {
          "internalType": "uint256",
          "name": "lastStakedTimestamp",
          "type": "uint256"
        }
      ],
      "stateMutability": "view",
      "type": "function",
      "constant": true
    },
    {
      "inputs": [
        {
          "internalType": "address",
          "name": "newOwner",
          "type": "address"
        }
      ],
      "name": "transferOwnership",
      "outputs": [],
      "stateMutability": "nonpayable",
      "type": "function"
    },
    {
      "inputs": [
        {
          "internalType": "string",
          "name": "_title",
          "type": "string"
        },
        {
          "internalType": "string",
          "name": "_description",
          "type": "string"
        },
        {
          "internalType": "string",
          "name": "_category",
          "type": "string"
        },
        {
          "internalType": "string",
          "name": "_body",
          "type": "string"
        },
        {
          "internalType": "string",
          "name": "_estBudget",
          "type": "string"
        }
      ],
      "name": "createProposal",
      "outputs": [
        {
          "internalType": "uint256",
          "name": "",
          "type": "uint256"
        }
      ],
      "stateMutability": "nonpayable",
      "type": "function"
    },
    {
      "inputs": [
        {
          "internalType": "uint256",
          "name": "_proposalId",
          "type": "uint256"
        }
      ],
      "name": "getProposal",
      "outputs": [
        {
          "components": [
            {
              "internalType": "uint256",
              "name": "Id",
              "type": "uint256"
            },
            {
              "internalType": "string",
              "name": "title",
              "type": "string"
            },
            {
              "internalType": "string",
              "name": "description",
              "type": "string"
            },
            {
              "internalType": "string",
              "name": "category",
              "type": "string"
            },
            {
              "internalType": "string",
              "name": "body",
              "type": "string"
            },
            {
              "internalType": "string",
              "name": "estBudget",
              "type": "string"
            },
            {
              "internalType": "address",
              "name": "creator",
              "type": "address"
            },
            {
              "internalType": "uint256",
              "name": "forVotes",
              "type": "uint256"
            },
            {
              "internalType": "uint256",
              "name": "againstVotes",
              "type": "uint256"
            },
            {
              "internalType": "uint256",
              "name": "tokensStaked",
              "type": "uint256"
            },
            {
              "internalType": "bool",
              "name": "executed",
              "type": "bool"
            },
            {
              "internalType": "bool",
              "name": "revoked",
              "type": "bool"
            }
          ],
          "internalType": "struct GrantGovernance.Proposals",
          "name": "",
          "type": "tuple"
        }
      ],
      "stateMutability": "view",
      "type": "function",
      "constant": true
    },
    {
      "inputs": [],
      "name": "getProposals",
      "outputs": [
        {
          "components": [
            {
              "internalType": "uint256",
              "name": "Id",
              "type": "uint256"
            },
            {
              "internalType": "string",
              "name": "title",
              "type": "string"
            },
            {
              "internalType": "string",
              "name": "description",
              "type": "string"
            },
            {
              "internalType": "string",
              "name": "category",
              "type": "string"
            },
            {
              "internalType": "string",
              "name": "body",
              "type": "string"
            },
            {
              "internalType": "string",
              "name": "estBudget",
              "type": "string"
            },
            {
              "internalType": "address",
              "name": "creator",
              "type": "address"
            },
            {
              "internalType": "uint256",
              "name": "forVotes",
              "type": "uint256"
            },
            {
              "internalType": "uint256",
              "name": "againstVotes",
              "type": "uint256"
            },
            {
              "internalType": "uint256",
              "name": "tokensStaked",
              "type": "uint256"
            },
            {
              "internalType": "bool",
              "name": "executed",
              "type": "bool"
            },
            {
              "internalType": "bool",
              "name": "revoked",
              "type": "bool"
            }
          ],
          "internalType": "struct GrantGovernance.Proposals[]",
          "name": "",
          "type": "tuple[]"
        }
      ],
      "stateMutability": "view",
      "type": "function",
      "constant": true
    },
    {
      "inputs": [
        {
          "internalType": "uint256",
          "name": "_proposalId",
          "type": "uint256"
        },
        {
          "internalType": "bool",
          "name": "_inFavor",
          "type": "bool"
        }
      ],
      "name": "vote",
      "outputs": [],
      "stateMutability": "nonpayable",
      "type": "function"
    },
    {
      "inputs": [
        {
          "internalType": "uint256",
          "name": "_proposalId",
          "type": "uint256"
        }
      ],
      "name": "executeProposal",
      "outputs": [],
      "stateMutability": "nonpayable",
      "type": "function"
    },
    {
      "inputs": [
        {
          "internalType": "uint256",
          "name": "_proposalId",
          "type": "uint256"
        },
        {
          "internalType": "uint256",
          "name": "_amount",
          "type": "uint256"
        }
      ],
      "name": "stakeTokens",
      "outputs": [],
      "stateMutability": "nonpayable",
      "type": "function"
    }
  ],
  "bytecode": "0x608060405234801561000f575f80fd5b505f61001f6100c060201b60201c565b9050805f806101000a81548173ffffffffffffffffffffffffffffffffffffffff021916908373ffffffffffffffffffffffffffffffffffffffff1602179055508073ffffffffffffffffffffffffffffffffffffffff165f73ffffffffffffffffffffffffffffffffffffffff167f8be0079c531659141344cd1fd0a4f28419497f9722a3daafe3b4186f6b6457e060405160405180910390a3506100c7565b5f33905090565b612b9f80620000d55f395ff3fe608060405234801561000f575f80fd5b50600436106100b2575f3560e01c80638da5cb5b1161006f5780638da5cb5b14610183578063bb8225aa146101a1578063c7f758a8146101d1578063c9d27afe14610201578063d4f910a71461021d578063f2fde38b1461024f576100b2565b8063013cf08b146100b65780630d61b519146100f15780633b7b61881461010d57806362564c4814610129578063715018a614610147578063817c18d414610151575b5f80fd5b6100d060048036038101906100cb9190611a27565b61026b565b6040516100e89c9b9a99989796959493929190611b44565b60405180910390f35b61010b60048036038101906101069190611a27565b6105ac565b005b61012760048036038101906101229190611c1f565b610770565b005b610131610a83565b60405161013e9190611eaa565b60405180910390f35b61014f610e61565b005b61016b60048036038101906101669190611ef4565b610faf565b60405161017a93929190611f32565b60405180910390f35b61018b610fe0565b6040516101989190611f67565b60405180910390f35b6101bb60048036038101906101b691906120ac565b611007565b6040516101c891906121af565b60405180910390f35b6101eb60048036038101906101e69190611a27565b61120b565b6040516101f891906122e5565b60405180910390f35b61021b6004803603810190610216919061232f565b6115c7565b005b6102376004803603810190610232919061236d565b61176d565b6040516102469392919061240b565b60405180910390f35b6102696004803603810190610264919061236d565b6117ab565b005b6003818154811061027a575f80fd5b905f5260205f2090600b02015f91509050805f01549080600101805461029f9061246d565b80601f01602080910402602001604051908101604052809291908181526020018280546102cb9061246d565b80156103165780601f106102ed57610100808354040283529160200191610316565b820191905f5260205f20905b8154815290600101906020018083116102f957829003601f168201915b50505050509080600201805461032b9061246d565b80601f01602080910402602001604051908101604052809291908181526020018280546103579061246d565b80156103a25780601f10610379576101008083540402835291602001916103a2565b820191905f5260205f20905b81548152906001019060200180831161038557829003601f168201915b5050505050908060030180546103b79061246d565b80601f01602080910402602001604051908101604052809291908181526020018280546103e39061246d565b801561042e5780601f106104055761010080835404028352916020019161042e565b820191905f5260205f20905b81548152906001019060200180831161041157829003601f168201915b5050505050908060040180546104439061246d565b80601f016020809104026020016040519081016040528092919081815260200182805461046f9061246d565b80156104ba5780601f10610491576101008083540402835291602001916104ba565b820191905f5260205f20905b81548152906001019060200180831161049d57829003601f168201915b5050505050908060050180546104cf9061246d565b80601f01602080910402602001604051908101604052809291908181526020018280546104fb9061246d565b80156105465780601f1061051d57610100808354040283529160200191610546565b820191905f5260205f20905b81548152906001019060200180831161052957829003601f168201915b505050505090806006015f9054906101000a900473ffffffffffffffffffffffffffffffffffffffff169080600701549080600801549080600901549080600a015f9054906101000a900460ff169080600a0160019054906101000a900460ff1690508c565b60038054905081106105f3576040517f08c379a00000000000000000000000000000000000000000000000000000000081526004016105ea906124e7565b60405180910390fd5b6003818154811061060757610606612505565b5b905f5260205f2090600b0201600a0160019054906101000a900460ff1615610664576040517f08c379a000000000000000000000000000000000000000000000000000000000815260040161065b9061257c565b60405180910390fd5b6003818154811061067857610677612505565b5b905f5260205f2090600b0201600a015f9054906101000a900460ff16156106d4576040517f08c379a00000000000000000000000000000000000000000000000000000000081526004016106cb906125e4565b60405180910390fd5b5f600382815481106106e9576106e8612505565b5b905f5260205f2090600b0201905080600801548160070154111561072457600181600a015f6101000a81548160ff0219169083151502179055505b817f948f4a9cd986f1118c3fbd459f7a22b23c0693e1ca3ef06a6a8be5aa7d39cc0382600a015f9054906101000a900460ff166040516107649190612602565b60405180910390a25050565b5f81116107b2576040517f08c379a00000000000000000000000000000000000000000000000000000000081526004016107a990612665565b60405180910390fd5b600382815481106107c6576107c5612505565b5b905f5260205f2090600b0201600a0160019054906101000a900460ff1615610823576040517f08c379a000000000000000000000000000000000000000000000000000000000815260040161081a9061257c565b60405180910390fd5b6003828154811061083757610836612505565b5b905f5260205f2090600b0201600a015f9054906101000a900460ff1615610893576040517f08c379a000000000000000000000000000000000000000000000000000000000815260040161088a906126cd565b60405180910390fd5b8060015f3373ffffffffffffffffffffffffffffffffffffffff1673ffffffffffffffffffffffffffffffffffffffff1681526020019081526020015f206001015f8282546108e29190612718565b925050819055508060025f8481526020019081526020015f205f3373ffffffffffffffffffffffffffffffffffffffff1673ffffffffffffffffffffffffffffffffffffffff1681526020019081526020015f205f015f8282546109469190612718565b925050819055504260025f8481526020019081526020015f205f3373ffffffffffffffffffffffffffffffffffffffff1673ffffffffffffffffffffffffffffffffffffffff1681526020019081526020015f20600201819055506001805f3373ffffffffffffffffffffffffffffffffffffffff1673ffffffffffffffffffffffffffffffffffffffff1681526020019081526020015f205f015f6101000a81548160ff0219169083151502179055508060038381548110610a0c57610a0b612505565b5b905f5260205f2090600b02016009015f828254610a299190612718565b925050819055503373ffffffffffffffffffffffffffffffffffffffff16827f3c2905e5cda90fbc3e1296ec4bc49130e39b6203bb1d13b4a855ced4d920e16f83604051610a7791906121af565b60405180910390a35050565b60606003805480602002602001604051908101604052809291908181526020015f905b82821015610e58578382905f5260205f2090600b0201604051806101800160405290815f8201548152602001600182018054610ae19061246d565b80601f0160208091040260200160405190810160405280929190818152602001828054610b0d9061246d565b8015610b585780601f10610b2f57610100808354040283529160200191610b58565b820191905f5260205f20905b815481529060010190602001808311610b3b57829003601f168201915b50505050508152602001600282018054610b719061246d565b80601f0160208091040260200160405190810160405280929190818152602001828054610b9d9061246d565b8015610be85780601f10610bbf57610100808354040283529160200191610be8565b820191905f5260205f20905b815481529060010190602001808311610bcb57829003601f168201915b50505050508152602001600382018054610c019061246d565b80601f0160208091040260200160405190810160405280929190818152602001828054610c2d9061246d565b8015610c785780601f10610c4f57610100808354040283529160200191610c78565b820191905f5260205f20905b815481529060010190602001808311610c5b57829003601f168201915b50505050508152602001600482018054610c919061246d565b80601f0160208091040260200160405190810160405280929190818152602001828054610cbd9061246d565b8015610d085780601f10610cdf57610100808354040283529160200191610d08565b820191905f5260205f20905b815481529060010190602001808311610ceb57829003601f168201915b50505050508152602001600582018054610d219061246d565b80601f0160208091040260200160405190810160405280929190818152602001828054610d4d9061246d565b8015610d985780601f10610d6f57610100808354040283529160200191610d98565b820191905f5260205f20905b815481529060010190602001808311610d7b57829003601f168201915b50505050508152602001600682015f9054906101000a900473ffffffffffffffffffffffffffffffffffffffff1673ffffffffffffffffffffffffffffffffffffffff1673ffffffffffffffffffffffffffffffffffffffff168152602001600782015481526020016008820154815260200160098201548152602001600a82015f9054906101000a900460ff16151515158152602001600a820160019054906101000a900460ff16151515158152505081526020019060010190610aa6565b50505050905090565b610e69611968565b73ffffffffffffffffffffffffffffffffffffffff165f8054906101000a900473ffffffffffffffffffffffffffffffffffffffff1673ffffffffffffffffffffffffffffffffffffffff1614610ef5576040517f08c379a0000000000000000000000000000000000000000000000000000000008152600401610eec90612795565b60405180910390fd5b5f73ffffffffffffffffffffffffffffffffffffffff165f8054906101000a900473ffffffffffffffffffffffffffffffffffffffff1673ffffffffffffffffffffffffffffffffffffffff167f8be0079c531659141344cd1fd0a4f28419497f9722a3daafe3b4186f6b6457e060405160405180910390a35f805f6101000a81548173ffffffffffffffffffffffffffffffffffffffff021916908373ffffffffffffffffffffffffffffffffffffffff160217905550565b6002602052815f5260405f20602052805f5260405f205f9150915050805f0154908060010154908060020154905083565b5f805f9054906101000a900473ffffffffffffffffffffffffffffffffffffffff16905090565b5f80600380549050905060036040518061018001604052808381526020018981526020018881526020018781526020018681526020018581526020013373ffffffffffffffffffffffffffffffffffffffff1681526020015f81526020015f81526020015f81526020015f151581526020015f1515815250908060018154018082558091505060019003905f5260205f2090600b02015f909190919091505f820151815f015560208201518160010190816110c29190612950565b5060408201518160020190816110d89190612950565b5060608201518160030190816110ee9190612950565b5060808201518160040190816111049190612950565b5060a082015181600501908161111a9190612950565b5060c0820151816006015f6101000a81548173ffffffffffffffffffffffffffffffffffffffff021916908373ffffffffffffffffffffffffffffffffffffffff16021790555060e082015181600701556101008201518160080155610120820151816009015561014082015181600a015f6101000a81548160ff02191690831515021790555061016082015181600a0160016101000a81548160ff0219169083151502179055505050807fc8c078bfee58e5822588f08b4509ed1eb5058e03f666cca84dd2d44bf5c288a888336040516111f6929190612a1f565b60405180910390a28091505095945050505050565b61121361196f565b6003828154811061122757611226612505565b5b905f5260205f2090600b0201604051806101800160405290815f82015481526020016001820180546112589061246d565b80601f01602080910402602001604051908101604052809291908181526020018280546112849061246d565b80156112cf5780601f106112a6576101008083540402835291602001916112cf565b820191905f5260205f20905b8154815290600101906020018083116112b257829003601f168201915b505050505081526020016002820180546112e89061246d565b80601f01602080910402602001604051908101604052809291908181526020018280546113149061246d565b801561135f5780601f106113365761010080835404028352916020019161135f565b820191905f5260205f20905b81548152906001019060200180831161134257829003601f168201915b505050505081526020016003820180546113789061246d565b80601f01602080910402602001604051908101604052809291908181526020018280546113a49061246d565b80156113ef5780601f106113c6576101008083540402835291602001916113ef565b820191905f5260205f20905b8154815290600101906020018083116113d257829003601f168201915b505050505081526020016004820180546114089061246d565b80601f01602080910402602001604051908101604052809291908181526020018280546114349061246d565b801561147f5780601f106114565761010080835404028352916020019161147f565b820191905f5260205f20905b81548152906001019060200180831161146257829003601f168201915b505050505081526020016005820180546114989061246d565b80601f01602080910402602001604051908101604052809291908181526020018280546114c49061246d565b801561150f5780601f106114e65761010080835404028352916020019161150f565b820191905f5260205f20905b8154815290600101906020018083116114f257829003601f168201915b50505050508152602001600682015f9054906101000a900473ffffffffffffffffffffffffffffffffffffffff1673ffffffffffffffffffffffffffffffffffffffff1673ffffffffffffffffffffffffffffffffffffffff168152602001600782015481526020016008820154815260200160098201548152602001600a82015f9054906101000a900460ff16151515158152602001600a820160019054906101000a900460ff1615151515815250509050919050565b600380549050821061160e576040517f08c379a0000000000000000000000000000000000000000000000000000000008152600401611605906124e7565b60405180910390fd5b6003828154811061162257611621612505565b5b905f5260205f2090600b0201600a0160019054906101000a900460ff1615801561167957506003828154811061165b5761165a612505565b5b905f5260205f2090600b0201600a015f9054906101000a900460ff16155b6116b8576040517f08c379a00000000000000000000000000000000000000000000000000000000081526004016116af90612abd565b60405180910390fd5b5f600383815481106116cd576116cc612505565b5b905f5260205f2090600b0201905081156116ff57600181600701546116f29190612718565b8160070181905550611719565b600181600801546117109190612718565b81600801819055505b3373ffffffffffffffffffffffffffffffffffffffff16837ff2913dbe661ee2acc4a046d8fbcdc792373bda34c41c6086484b5345e5785e5f846040516117609190612602565b60405180910390a3505050565b6001602052805f5260405f205f91509050805f015f9054906101000a900460ff1690805f0160019054906101000a900460ff16908060010154905083565b6117b3611968565b73ffffffffffffffffffffffffffffffffffffffff165f8054906101000a900473ffffffffffffffffffffffffffffffffffffffff1673ffffffffffffffffffffffffffffffffffffffff161461183f576040517f08c379a000000000000000000000000000000000000000000000000000000000815260040161183690612795565b60405180910390fd5b5f73ffffffffffffffffffffffffffffffffffffffff168173ffffffffffffffffffffffffffffffffffffffff16036118ad576040517f08c379a00000000000000000000000000000000000000000000000000000000081526004016118a490612b4b565b60405180910390fd5b8073ffffffffffffffffffffffffffffffffffffffff165f8054906101000a900473ffffffffffffffffffffffffffffffffffffffff1673ffffffffffffffffffffffffffffffffffffffff167f8be0079c531659141344cd1fd0a4f28419497f9722a3daafe3b4186f6b6457e060405160405180910390a3805f806101000a81548173ffffffffffffffffffffffffffffffffffffffff021916908373ffffffffffffffffffffffffffffffffffffffff16021790555050565b5f33905090565b6040518061018001604052805f815260200160608152602001606081526020016060815260200160608152602001606081526020015f73ffffffffffffffffffffffffffffffffffffffff1681526020015f81526020015f81526020015f81526020015f151581526020015f151581525090565b5f604051905090565b5f80fd5b5f80fd5b5f819050919050565b611a06816119f4565b8114611a10575f80fd5b50565b5f81359050611a21816119fd565b92915050565b5f60208284031215611a3c57611a3b6119ec565b5b5f611a4984828501611a13565b91505092915050565b611a5b816119f4565b82525050565b5f81519050919050565b5f82825260208201905092915050565b5f5b83811015611a98578082015181840152602081019050611a7d565b5f8484015250505050565b5f601f19601f8301169050919050565b5f611abd82611a61565b611ac78185611a6b565b9350611ad7818560208601611a7b565b611ae081611aa3565b840191505092915050565b5f73ffffffffffffffffffffffffffffffffffffffff82169050919050565b5f611b1482611aeb565b9050919050565b611b2481611b0a565b82525050565b5f8115159050919050565b611b3e81611b2a565b82525050565b5f61018082019050611b585f83018f611a52565b8181036020830152611b6a818e611ab3565b90508181036040830152611b7e818d611ab3565b90508181036060830152611b92818c611ab3565b90508181036080830152611ba6818b611ab3565b905081810360a0830152611bba818a611ab3565b9050611bc960c0830189611b1b565b611bd660e0830188611a52565b611be4610100830187611a52565b611bf2610120830186611a52565b611c00610140830185611b35565b611c0e610160830184611b35565b9d9c50505050505050505050505050565b5f8060408385031215611c3557611c346119ec565b5b5f611c4285828601611a13565b9250506020611c5385828601611a13565b9150509250929050565b5f81519050919050565b5f82825260208201905092915050565b5f819050602082019050919050565b611c8f816119f4565b82525050565b5f82825260208201905092915050565b5f611caf82611a61565b611cb98185611c95565b9350611cc9818560208601611a7b565b611cd281611aa3565b840191505092915050565b611ce681611b0a565b82525050565b611cf581611b2a565b82525050565b5f61018083015f830151611d115f860182611c86565b5060208301518482036020860152611d298282611ca5565b91505060408301518482036040860152611d438282611ca5565b91505060608301518482036060860152611d5d8282611ca5565b91505060808301518482036080860152611d778282611ca5565b91505060a083015184820360a0860152611d918282611ca5565b91505060c0830151611da660c0860182611cdd565b5060e0830151611db960e0860182611c86565b50610100830151611dce610100860182611c86565b50610120830151611de3610120860182611c86565b50610140830151611df8610140860182611cec565b50610160830151611e0d610160860182611cec565b508091505092915050565b5f611e238383611cfb565b905092915050565b5f602082019050919050565b5f611e4182611c5d565b611e4b8185611c67565b935083602082028501611e5d85611c77565b805f5b85811015611e985784840389528151611e798582611e18565b9450611e8483611e2b565b925060208a01995050600181019050611e60565b50829750879550505050505092915050565b5f6020820190508181035f830152611ec28184611e37565b905092915050565b611ed381611b0a565b8114611edd575f80fd5b50565b5f81359050611eee81611eca565b92915050565b5f8060408385031215611f0a57611f096119ec565b5b5f611f1785828601611a13565b9250506020611f2885828601611ee0565b9150509250929050565b5f606082019050611f455f830186611a52565b611f526020830185611a52565b611f5f6040830184611a52565b949350505050565b5f602082019050611f7a5f830184611b1b565b92915050565b5f80fd5b5f80fd5b7f4e487b71000000000000000000000000000000000000000000000000000000005f52604160045260245ffd5b611fbe82611aa3565b810181811067ffffffffffffffff82111715611fdd57611fdc611f88565b5b80604052505050565b5f611fef6119e3565b9050611ffb8282611fb5565b919050565b5f67ffffffffffffffff82111561201a57612019611f88565b5b61202382611aa3565b9050602081019050919050565b828183375f83830152505050565b5f61205061204b84612000565b611fe6565b90508281526020810184848401111561206c5761206b611f84565b5b612077848285612030565b509392505050565b5f82601f83011261209357612092611f80565b5b81356120a384826020860161203e565b91505092915050565b5f805f805f60a086880312156120c5576120c46119ec565b5b5f86013567ffffffffffffffff8111156120e2576120e16119f0565b5b6120ee8882890161207f565b955050602086013567ffffffffffffffff81111561210f5761210e6119f0565b5b61211b8882890161207f565b945050604086013567ffffffffffffffff81111561213c5761213b6119f0565b5b6121488882890161207f565b935050606086013567ffffffffffffffff811115612169576121686119f0565b5b6121758882890161207f565b925050608086013567ffffffffffffffff811115612196576121956119f0565b5b6121a28882890161207f565b9150509295509295909350565b5f6020820190506121c25f830184611a52565b92915050565b5f61018083015f8301516121de5f860182611c86565b50602083015184820360208601526121f68282611ca5565b915050604083015184820360408601526122108282611ca5565b9150506060830151848203606086015261222a8282611ca5565b915050608083015184820360808601526122448282611ca5565b91505060a083015184820360a086015261225e8282611ca5565b91505060c083015161227360c0860182611cdd565b5060e083015161228660e0860182611c86565b5061010083015161229b610100860182611c86565b506101208301516122b0610120860182611c86565b506101408301516122c5610140860182611cec565b506101608301516122da610160860182611cec565b508091505092915050565b5f6020820190508181035f8301526122fd81846121c8565b905092915050565b61230e81611b2a565b8114612318575f80fd5b50565b5f8135905061232981612305565b92915050565b5f8060408385031215612345576123446119ec565b5b5f61235285828601611a13565b92505060206123638582860161231b565b9150509250929050565b5f60208284031215612382576123816119ec565b5b5f61238f84828501611ee0565b91505092915050565b7f4e487b71000000000000000000000000000000000000000000000000000000005f52602160045260245ffd5b600481106123d6576123d5612398565b5b50565b5f8190506123e6826123c5565b919050565b5f6123f5826123d9565b9050919050565b612405816123eb565b82525050565b5f60608201905061241e5f830186611b35565b61242b60208301856123fc565b6124386040830184611a52565b949350505050565b7f4e487b71000000000000000000000000000000000000000000000000000000005f52602260045260245ffd5b5f600282049050600182168061248457607f821691505b60208210810361249757612496612440565b5b50919050565b7f496e76616c69642070726f706f73616c204964000000000000000000000000005f82015250565b5f6124d1601383611a6b565b91506124dc8261249d565b602082019050919050565b5f6020820190508181035f8301526124fe816124c5565b9050919050565b7f4e487b71000000000000000000000000000000000000000000000000000000005f52603260045260245ffd5b7f50726f706f73616c206973207265766f6b6564200000000000000000000000005f82015250565b5f612566601483611a6b565b915061257182612532565b602082019050919050565b5f6020820190508181035f8301526125938161255a565b9050919050565b7f50726f706f73616c2069732065786563757465642000000000000000000000005f82015250565b5f6125ce601583611a6b565b91506125d98261259a565b602082019050919050565b5f6020820190508181035f8301526125fb816125c2565b9050919050565b5f6020820190506126155f830184611b35565b92915050565b7f416d6f756e742073686f756c642062652067726561746572207468616e2030005f82015250565b5f61264f601f83611a6b565b915061265a8261261b565b602082019050919050565b5f6020820190508181035f83015261267c81612643565b9050919050565b7f50726f706f73616c20697320616c7265616479206578656375746564200000005f82015250565b5f6126b7601d83611a6b565b91506126c282612683565b602082019050919050565b5f6020820190508181035f8301526126e4816126ab565b9050919050565b7f4e487b71000000000000000000000000000000000000000000000000000000005f52601160045260245ffd5b5f612722826119f4565b915061272d836119f4565b9250828201905080821115612745576127446126eb565b5b92915050565b7f4f776e61626c653a2063616c6c6572206973206e6f7420746865206f776e65725f82015250565b5f61277f602083611a6b565b915061278a8261274b565b602082019050919050565b5f6020820190508181035f8301526127ac81612773565b9050919050565b5f819050815f5260205f209050919050565b5f6020601f8301049050919050565b5f82821b905092915050565b5f6008830261280f7fffffffffffffffffffffffffffffffffffffffffffffffffffffffffffffffff826127d4565b61281986836127d4565b95508019841693508086168417925050509392505050565b5f819050919050565b5f61285461284f61284a846119f4565b612831565b6119f4565b9050919050565b5f819050919050565b61286d8361283a565b6128816128798261285b565b8484546127e0565b825550505050565b5f90565b612895612889565b6128a0818484612864565b505050565b5b818110156128c3576128b85f8261288d565b6001810190506128a6565b5050565b601f821115612908576128d9816127b3565b6128e2846127c5565b810160208510156128f1578190505b6129056128fd856127c5565b8301826128a5565b50505b505050565b5f82821c905092915050565b5f6129285f198460080261290d565b1980831691505092915050565b5f6129408383612919565b9150826002028217905092915050565b61295982611a61565b67ffffffffffffffff81111561297257612971611f88565b5b61297c825461246d565b6129878282856128c7565b5f60209050601f8311600181146129b8575f84156129a6578287015190505b6129b08582612935565b865550612a17565b601f1984166129c6866127b3565b5f5b828110156129ed578489015182556001820191506020850194506020810190506129c8565b86831015612a0a5784890151612a06601f891682612919565b8355505b6001600288020188555050505b505050505050565b5f6040820190508181035f830152612a378185611ab3565b9050612a466020830184611b1b565b9392505050565b7f50726f706f73616c206973207265766f6b6564206f7220616c726561647920655f8201527f7865637574656400000000000000000000000000000000000000000000000000602082015250565b5f612aa7602783611a6b565b9150612ab282612a4d565b604082019050919050565b5f6020820190508181035f830152612ad481612a9b565b9050919050565b7f4f776e61626c653a206e6577206f776e657220697320746865207a65726f20615f8201527f6464726573730000000000000000000000000000000000000000000000000000602082015250565b5f612b35602683611a6b565b9150612b4082612adb565b604082019050919050565b5f6020820190508181035f830152612b6281612b29565b905091905056fea26469706673582212202ff4ddf5fa6c2c00262740d55574e65d920e4ceb538ef3140c307630ee3a507464736f6c63430008150033",
  "immutableReferences": {},
  "source": "pragma solidity 0.8.21;\npragma abicoder v2;\n\nimport {Ownable} from './dependencies/open-zeppelin/Ownable.sol';\nimport {SafeMath} from './dependencies/open-zeppelin/SafeMath.sol';\n\n/**  @title Grant Governance Contract\n\n* - Create a proposal \n* - Revoke a proposal\n* - Queue a proposal\n* - Submit Vote to a proposal\n* - Stake ERC20 tokens or fiat currency for a proposal to gain voting powers\n* - Adjust voting powers based on tokens staked.\n\n**/\n\ncontract GrantGovernance is Ownable {\n\n    struct Proposals{\n        uint256 Id;\n        string title;\n        string description;\n        string category;\n        string body;\n        string estBudget;\n        address creator;\n        uint256 forVotes;\n        uint256 againstVotes;\n        uint256 tokensStaked;\n        bool executed;\n        bool revoked;\n    }\n\n    enum CitizenStatus{\n       NEWBIE,\n       VOTER,\n       NOMINATOR,\n       AMBASSADOR\n    }\n\n    struct Citizen {\n        bool isActive;\n        CitizenStatus status;\n        uint256 votingPower;\n    }\n\n    struct StakePerCitizen{\n        uint256 tokensStaked;\n        uint256 fiatStaked;\n        uint256 lastStakedTimestamp;\n    }\n    \n\n    mapping (address => Citizen) public citizens;\n\n    // every proposal will have map of stakes for citizens that have staked tokens\n    mapping (uint256 => mapping (address => StakePerCitizen)) public stakePerCitizen;\n\n    Proposals[] public  proposals;\n\n    event ProposalCreated (uint256 indexed proposalId, string title, address creator);\n    event Voted (uint256 indexed proposalId, address indexed voter, bool inFavor);\n    event ProposalExecuted (uint256 indexed proposalId, bool executed);\n    event TokensStaked (uint256 indexed proposalId, address indexed staker, uint256 amount);\n\n    function createProposal (string memory _title, string memory _description, string memory _category, string memory _body, string memory _estBudget) public returns (uint256){\n        uint proposalId = proposals.length;\n        proposals.push(Proposals(proposalId, _title, _description, _category, _body, _estBudget, msg.sender, 0, 0, 0, false, false ));\n        emit ProposalCreated (proposalId, _title, msg.sender);\n        return proposalId;\n    }\n\n    function getProposal (uint256 _proposalId) public view returns (Proposals memory){\n        return proposals[_proposalId];\n    }\n\n    function getProposals () public view returns (Proposals [] memory){\n        return proposals;\n    }\n\n    function vote (uint256 _proposalId, bool _inFavor) public  {\n        \n        require (_proposalId < proposals.length, \"Invalid proposal Id\");\n\n        require (!proposals[_proposalId].revoked && !proposals[_proposalId].executed, \"Proposal is revoked or already executed\");\n\n        Proposals storage proposal = proposals[_proposalId];\n\n        if (_inFavor) {\n            proposal.forVotes = proposal.forVotes + 1;\n        }else {\n            proposal.againstVotes = proposal.againstVotes + 1;\n        }\n\n        emit Voted(_proposalId, msg.sender, _inFavor);\n    }\n\n    function executeProposal (uint256 _proposalId) public {\n\n        require (_proposalId < proposals.length, \"Invalid proposal Id\");\n\n        require (!proposals[_proposalId].revoked, \"Proposal is revoked \");\n        require (!proposals[_proposalId].executed, \"Proposal is executed \");\n\n        Proposals storage proposal = proposals[_proposalId];\n\n        if (proposal.forVotes > proposal.againstVotes){\n            proposal.executed = true;\n        }\n\n        emit ProposalExecuted (_proposalId, proposal.executed);\n    }\n\n    function stakeTokens (uint256 _proposalId, uint256 _amount) public{\n\n        require (_amount > 0, \"Amount should be greater than 0\");\n\n        require (!proposals[_proposalId].revoked, \"Proposal is revoked \");\n        require (!proposals[_proposalId].executed, \"Proposal is already executed \");\n\n        citizens[msg.sender].votingPower += _amount;\n        stakePerCitizen[_proposalId][msg.sender].tokensStaked += _amount;\n        stakePerCitizen[_proposalId][msg.sender].lastStakedTimestamp = block.timestamp;\n        citizens[msg.sender].isActive = true;\n\n        proposals[_proposalId].tokensStaked += _amount;\n        \n        emit TokensStaked (_proposalId, msg.sender, _amount);\n    }\n\n}",
  "sourcePath": "/Users/johngulbronson/DetroitArt/renaissance-contracts/contracts/grantGovernance.sol",
  "compiler": {
    "name": "solc",
    "version": "0.8.21+commit.d9974bed.Emscripten.clang"
  },
  "schemaVersion": "3.4.16",
  "updatedAt": "2024-03-02T05:33:03.996Z",
  "networkType": "ethereum",
  "devdoc": {
    "kind": "dev",
    "methods": {
      "owner()": {
        "details": "Returns the address of the current owner."
      },
      "renounceOwnership()": {
        "details": "Leaves the contract without owner. It will not be possible to call `onlyOwner` functions anymore. Can only be called by the current owner. NOTE: Renouncing ownership will leave the contract without an owner, thereby removing any functionality that is only available to the owner."
      },
      "transferOwnership(address)": {
        "details": "Transfers ownership of the contract to a new account (`newOwner`). Can only be called by the current owner."
      }
    },
    "title": "Grant Governance Contract - Create a proposal  - Revoke a proposal - Queue a proposal - Submit Vote to a proposal - Stake ERC20 tokens or fiat currency for a proposal to gain voting powers - Adjust voting powers based on tokens staked.*",
    "version": 1
  },
  "userdoc": {
    "kind": "user",
    "methods": {},
    "version": 1
  }
}