{
  "contractName": "GrantGovernance",
  "abi": [
    {
      "anonymous": false,
      "inputs": [
        {
          "indexed": true,
          "internalType": "address",
          "name": "previousOwner",
          "type": "address"
        },
        {
          "indexed": true,
          "internalType": "address",
          "name": "newOwner",
          "type": "address"
        }
      ],
      "name": "OwnershipTransferred",
      "type": "event"
    },
    {
      "anonymous": false,
      "inputs": [
        {
          "indexed": true,
          "internalType": "uint256",
          "name": "proposalId",
          "type": "uint256"
        },
        {
          "indexed": false,
          "internalType": "string",
          "name": "title",
          "type": "string"
        },
        {
          "indexed": false,
          "internalType": "address",
          "name": "creator",
          "type": "address"
        }
      ],
      "name": "ProposalCreated",
      "type": "event"
    },
    {
      "anonymous": false,
      "inputs": [
        {
          "indexed": true,
          "internalType": "uint256",
          "name": "proposalId",
          "type": "uint256"
        },
        {
          "indexed": false,
          "internalType": "bool",
          "name": "executed",
          "type": "bool"
        }
      ],
      "name": "ProposalExecuted",
      "type": "event"
    },
    {
      "anonymous": false,
      "inputs": [
        {
          "indexed": true,
          "internalType": "uint256",
          "name": "proposalId",
          "type": "uint256"
        },
        {
          "indexed": true,
          "internalType": "address",
          "name": "staker",
          "type": "address"
        },
        {
          "indexed": false,
          "internalType": "uint256",
          "name": "amount",
          "type": "uint256"
        }
      ],
      "name": "TokensStaked",
      "type": "event"
    },
    {
      "anonymous": false,
      "inputs": [
        {
          "indexed": true,
          "internalType": "uint256",
          "name": "proposalId",
          "type": "uint256"
        },
        {
          "indexed": true,
          "internalType": "address",
          "name": "voter",
          "type": "address"
        },
        {
          "indexed": false,
          "internalType": "bool",
          "name": "inFavor",
          "type": "bool"
        }
      ],
      "name": "Voted",
      "type": "event"
    },
    {
      "inputs": [
        {
          "internalType": "address",
          "name": "",
          "type": "address"
        }
      ],
      "name": "citizens",
      "outputs": [
        {
          "internalType": "bool",
          "name": "isActive",
          "type": "bool"
        },
        {
          "internalType": "enum GrantGovernance.CitizenStatus",
          "name": "status",
          "type": "uint8"
        },
        {
          "internalType": "uint256",
          "name": "votingPower",
          "type": "uint256"
        }
      ],
      "stateMutability": "view",
      "type": "function",
      "constant": true
    },
    {
      "inputs": [],
      "name": "owner",
      "outputs": [
        {
          "internalType": "address",
          "name": "",
          "type": "address"
        }
      ],
      "stateMutability": "view",
      "type": "function",
      "constant": true
    },
    {
      "inputs": [
        {
          "internalType": "uint256",
          "name": "",
          "type": "uint256"
        }
      ],
      "name": "proposals",
      "outputs": [
        {
          "internalType": "uint256",
          "name": "Id",
          "type": "uint256"
        },
        {
          "internalType": "string",
          "name": "title",
          "type": "string"
        },
        {
          "internalType": "string",
          "name": "description",
          "type": "string"
        },
        {
          "internalType": "string",
          "name": "category",
          "type": "string"
        },
        {
          "internalType": "string",
          "name": "body",
          "type": "string"
        },
        {
          "internalType": "string",
          "name": "estBudget",
          "type": "string"
        },
        {
          "internalType": "address",
          "name": "creator",
          "type": "address"
        },
        {
          "internalType": "uint256",
          "name": "forVotes",
          "type": "uint256"
        },
        {
          "internalType": "uint256",
          "name": "againstVotes",
          "type": "uint256"
        },
        {
          "internalType": "bool",
          "name": "executed",
          "type": "bool"
        },
        {
          "internalType": "bool",
          "name": "revoked",
          "type": "bool"
        },
        {
          "internalType": "bool",
          "name": "queued",
          "type": "bool"
        }
      ],
      "stateMutability": "view",
      "type": "function",
      "constant": true
    },
    {
      "inputs": [],
      "name": "renounceOwnership",
      "outputs": [],
      "stateMutability": "nonpayable",
      "type": "function"
    },
    {
      "inputs": [
        {
          "internalType": "uint256",
          "name": "",
          "type": "uint256"
        },
        {
          "internalType": "address",
          "name": "",
          "type": "address"
        }
      ],
      "name": "stakePerCitizen",
      "outputs": [
        {
          "internalType": "uint256",
          "name": "tokensStaked",
          "type": "uint256"
        },
        {
          "internalType": "uint256",
          "name": "fiatStaked",
          "type": "uint256"
        },
        {
          "internalType": "uint256",
          "name": "lastStakedTimestamp",
          "type": "uint256"
        }
      ],
      "stateMutability": "view",
      "type": "function",
      "constant": true
    },
    {
      "inputs": [
        {
          "internalType": "address",
          "name": "newOwner",
          "type": "address"
        }
      ],
      "name": "transferOwnership",
      "outputs": [],
      "stateMutability": "nonpayable",
      "type": "function"
    },
    {
      "inputs": [
        {
          "internalType": "string",
          "name": "_title",
          "type": "string"
        },
        {
          "internalType": "string",
          "name": "_description",
          "type": "string"
        },
        {
          "internalType": "string",
          "name": "_category",
          "type": "string"
        },
        {
          "internalType": "string",
          "name": "_body",
          "type": "string"
        },
        {
          "internalType": "string",
          "name": "_estBudget",
          "type": "string"
        }
      ],
      "name": "createProposal",
      "outputs": [
        {
          "internalType": "uint256",
          "name": "",
          "type": "uint256"
        }
      ],
      "stateMutability": "nonpayable",
      "type": "function"
    },
    {
      "inputs": [
        {
          "internalType": "uint256",
          "name": "_proposalId",
          "type": "uint256"
        }
      ],
      "name": "getProposal",
      "outputs": [
        {
          "components": [
            {
              "internalType": "uint256",
              "name": "Id",
              "type": "uint256"
            },
            {
              "internalType": "string",
              "name": "title",
              "type": "string"
            },
            {
              "internalType": "string",
              "name": "description",
              "type": "string"
            },
            {
              "internalType": "string",
              "name": "category",
              "type": "string"
            },
            {
              "internalType": "string",
              "name": "body",
              "type": "string"
            },
            {
              "internalType": "string",
              "name": "estBudget",
              "type": "string"
            },
            {
              "internalType": "address",
              "name": "creator",
              "type": "address"
            },
            {
              "internalType": "uint256",
              "name": "forVotes",
              "type": "uint256"
            },
            {
              "internalType": "uint256",
              "name": "againstVotes",
              "type": "uint256"
            },
            {
              "internalType": "bool",
              "name": "executed",
              "type": "bool"
            },
            {
              "internalType": "bool",
              "name": "revoked",
              "type": "bool"
            },
            {
              "internalType": "bool",
              "name": "queued",
              "type": "bool"
            }
          ],
          "internalType": "struct GrantGovernance.Proposals",
          "name": "",
          "type": "tuple"
        }
      ],
      "stateMutability": "view",
      "type": "function",
      "constant": true
    },
    {
      "inputs": [],
      "name": "getProposals",
      "outputs": [
        {
          "components": [
            {
              "internalType": "uint256",
              "name": "Id",
              "type": "uint256"
            },
            {
              "internalType": "string",
              "name": "title",
              "type": "string"
            },
            {
              "internalType": "string",
              "name": "description",
              "type": "string"
            },
            {
              "internalType": "string",
              "name": "category",
              "type": "string"
            },
            {
              "internalType": "string",
              "name": "body",
              "type": "string"
            },
            {
              "internalType": "string",
              "name": "estBudget",
              "type": "string"
            },
            {
              "internalType": "address",
              "name": "creator",
              "type": "address"
            },
            {
              "internalType": "uint256",
              "name": "forVotes",
              "type": "uint256"
            },
            {
              "internalType": "uint256",
              "name": "againstVotes",
              "type": "uint256"
            },
            {
              "internalType": "bool",
              "name": "executed",
              "type": "bool"
            },
            {
              "internalType": "bool",
              "name": "revoked",
              "type": "bool"
            },
            {
              "internalType": "bool",
              "name": "queued",
              "type": "bool"
            }
          ],
          "internalType": "struct GrantGovernance.Proposals[]",
          "name": "",
          "type": "tuple[]"
        }
      ],
      "stateMutability": "view",
      "type": "function",
      "constant": true
    },
    {
      "inputs": [
        {
          "internalType": "uint256",
          "name": "_proposalId",
          "type": "uint256"
        },
        {
          "internalType": "bool",
          "name": "_inFavor",
          "type": "bool"
        }
      ],
      "name": "vote",
      "outputs": [],
      "stateMutability": "nonpayable",
      "type": "function"
    },
    {
      "inputs": [
        {
          "internalType": "uint256",
          "name": "_proposalId",
          "type": "uint256"
        }
      ],
      "name": "executeProposal",
      "outputs": [],
      "stateMutability": "nonpayable",
      "type": "function"
    },
    {
      "inputs": [
        {
          "internalType": "uint256",
          "name": "_proposalId",
          "type": "uint256"
        },
        {
          "internalType": "uint256",
          "name": "_amount",
          "type": "uint256"
        }
      ],
      "name": "stakeTokens",
      "outputs": [],
      "stateMutability": "nonpayable",
      "type": "function"
    }
  ],
  "bytecode": "0x608060405234801561000f575f80fd5b505f61001f6100c060201b60201c565b9050805f806101000a81548173ffffffffffffffffffffffffffffffffffffffff021916908373ffffffffffffffffffffffffffffffffffffffff1602179055508073ffffffffffffffffffffffffffffffffffffffff165f73ffffffffffffffffffffffffffffffffffffffff167f8be0079c531659141344cd1fd0a4f28419497f9722a3daafe3b4186f6b6457e060405160405180910390a3506100c7565b5f33905090565b612e5d80620000d55f395ff3fe608060405234801561000f575f80fd5b50600436106100b2575f3560e01c80638da5cb5b1161006f5780638da5cb5b14610183578063bb8225aa146101a1578063c7f758a8146101d1578063c9d27afe14610201578063d4f910a71461021d578063f2fde38b1461024f576100b2565b8063013cf08b146100b65780630d61b519146100f15780633b7b61881461010d57806362564c4814610129578063715018a614610147578063817c18d414610151575b5f80fd5b6100d060048036038101906100cb9190611c15565b61026b565b6040516100e89c9b9a99989796959493929190611d32565b60405180910390f35b61010b60048036038101906101069190611c15565b6105b9565b005b61012760048036038101906101229190611e0d565b6107ee565b005b610131610b39565b60405161013e9190612098565b60405180910390f35b61014f610f28565b005b61016b600480360381019061016691906120e2565b611076565b60405161017a93929190612120565b60405180910390f35b61018b6110a7565b6040516101989190612155565b60405180910390f35b6101bb60048036038101906101b6919061229a565b6110ce565b6040516101c8919061239d565b60405180910390f35b6101eb60048036038101906101e69190611c15565b6112ea565b6040516101f891906124d3565b60405180910390f35b61021b6004803603810190610216919061251d565b6116b7565b005b6102376004803603810190610232919061255b565b611959565b604051610246939291906125f9565b60405180910390f35b6102696004803603810190610264919061255b565b611997565b005b6003818154811061027a575f80fd5b905f5260205f2090600a02015f91509050805f01549080600101805461029f9061265b565b80601f01602080910402602001604051908101604052809291908181526020018280546102cb9061265b565b80156103165780601f106102ed57610100808354040283529160200191610316565b820191905f5260205f20905b8154815290600101906020018083116102f957829003601f168201915b50505050509080600201805461032b9061265b565b80601f01602080910402602001604051908101604052809291908181526020018280546103579061265b565b80156103a25780601f10610379576101008083540402835291602001916103a2565b820191905f5260205f20905b81548152906001019060200180831161038557829003601f168201915b5050505050908060030180546103b79061265b565b80601f01602080910402602001604051908101604052809291908181526020018280546103e39061265b565b801561042e5780601f106104055761010080835404028352916020019161042e565b820191905f5260205f20905b81548152906001019060200180831161041157829003601f168201915b5050505050908060040180546104439061265b565b80601f016020809104026020016040519081016040528092919081815260200182805461046f9061265b565b80156104ba5780601f10610491576101008083540402835291602001916104ba565b820191905f5260205f20905b81548152906001019060200180831161049d57829003601f168201915b5050505050908060050180546104cf9061265b565b80601f01602080910402602001604051908101604052809291908181526020018280546104fb9061265b565b80156105465780601f1061051d57610100808354040283529160200191610546565b820191905f5260205f20905b81548152906001019060200180831161052957829003601f168201915b505050505090806006015f9054906101000a900473ffffffffffffffffffffffffffffffffffffffff1690806007015490806008015490806009015f9054906101000a900460ff16908060090160019054906101000a900460ff16908060090160029054906101000a900460ff1690508c565b6003805490508110610600576040517f08c379a00000000000000000000000000000000000000000000000000000000081526004016105f7906126d5565b60405180910390fd5b60038181548110610614576106136126f3565b5b905f5260205f2090600a020160090160029054906101000a900460ff1615610671576040517f08c379a00000000000000000000000000000000000000000000000000000000081526004016106689061276a565b60405180910390fd5b60038181548110610685576106846126f3565b5b905f5260205f2090600a020160090160019054906101000a900460ff16156106e2576040517f08c379a00000000000000000000000000000000000000000000000000000000081526004016106d9906127d2565b60405180910390fd5b600381815481106106f6576106f56126f3565b5b905f5260205f2090600a02016009015f9054906101000a900460ff1615610752576040517f08c379a00000000000000000000000000000000000000000000000000000000081526004016107499061283a565b60405180910390fd5b5f60038281548110610767576107666126f3565b5b905f5260205f2090600a020190508060080154816007015411156107a2576001816009015f6101000a81548160ff0219169083151502179055505b817f948f4a9cd986f1118c3fbd459f7a22b23c0693e1ca3ef06a6a8be5aa7d39cc03826009015f9054906101000a900460ff166040516107e29190612858565b60405180910390a25050565b5f8111610830576040517f08c379a0000000000000000000000000000000000000000000000000000000008152600401610827906128bb565b60405180910390fd5b60038281548110610844576108436126f3565b5b905f5260205f2090600a020160090160029054906101000a900460ff16156108a1576040517f08c379a00000000000000000000000000000000000000000000000000000000081526004016108989061276a565b60405180910390fd5b600382815481106108b5576108b46126f3565b5b905f5260205f2090600a020160090160019054906101000a900460ff1615610912576040517f08c379a0000000000000000000000000000000000000000000000000000000008152600401610909906127d2565b60405180910390fd5b60038281548110610926576109256126f3565b5b905f5260205f2090600a02016009015f9054906101000a900460ff1615610982576040517f08c379a000000000000000000000000000000000000000000000000000000000815260040161097990612923565b60405180910390fd5b8060015f3373ffffffffffffffffffffffffffffffffffffffff1673ffffffffffffffffffffffffffffffffffffffff1681526020019081526020015f206001015f8282546109d1919061296e565b925050819055508060025f8481526020019081526020015f205f3373ffffffffffffffffffffffffffffffffffffffff1673ffffffffffffffffffffffffffffffffffffffff1681526020019081526020015f205f015f828254610a35919061296e565b925050819055504260025f8481526020019081526020015f205f3373ffffffffffffffffffffffffffffffffffffffff1673ffffffffffffffffffffffffffffffffffffffff1681526020019081526020015f20600201819055506001805f3373ffffffffffffffffffffffffffffffffffffffff1673ffffffffffffffffffffffffffffffffffffffff1681526020019081526020015f205f015f6101000a81548160ff0219169083151502179055503373ffffffffffffffffffffffffffffffffffffffff16827f3c2905e5cda90fbc3e1296ec4bc49130e39b6203bb1d13b4a855ced4d920e16f83604051610b2d919061239d565b60405180910390a35050565b60606003805480602002602001604051908101604052809291908181526020015f905b82821015610f1f578382905f5260205f2090600a0201604051806101800160405290815f8201548152602001600182018054610b979061265b565b80601f0160208091040260200160405190810160405280929190818152602001828054610bc39061265b565b8015610c0e5780601f10610be557610100808354040283529160200191610c0e565b820191905f5260205f20905b815481529060010190602001808311610bf157829003601f168201915b50505050508152602001600282018054610c279061265b565b80601f0160208091040260200160405190810160405280929190818152602001828054610c539061265b565b8015610c9e5780601f10610c7557610100808354040283529160200191610c9e565b820191905f5260205f20905b815481529060010190602001808311610c8157829003601f168201915b50505050508152602001600382018054610cb79061265b565b80601f0160208091040260200160405190810160405280929190818152602001828054610ce39061265b565b8015610d2e5780601f10610d0557610100808354040283529160200191610d2e565b820191905f5260205f20905b815481529060010190602001808311610d1157829003601f168201915b50505050508152602001600482018054610d479061265b565b80601f0160208091040260200160405190810160405280929190818152602001828054610d739061265b565b8015610dbe5780601f10610d9557610100808354040283529160200191610dbe565b820191905f5260205f20905b815481529060010190602001808311610da157829003601f168201915b50505050508152602001600582018054610dd79061265b565b80601f0160208091040260200160405190810160405280929190818152602001828054610e039061265b565b8015610e4e5780601f10610e2557610100808354040283529160200191610e4e565b820191905f5260205f20905b815481529060010190602001808311610e3157829003601f168201915b50505050508152602001600682015f9054906101000a900473ffffffffffffffffffffffffffffffffffffffff1673ffffffffffffffffffffffffffffffffffffffff1673ffffffffffffffffffffffffffffffffffffffff1681526020016007820154815260200160088201548152602001600982015f9054906101000a900460ff161515151581526020016009820160019054906101000a900460ff161515151581526020016009820160029054906101000a900460ff16151515158152505081526020019060010190610b5c565b50505050905090565b610f30611b54565b73ffffffffffffffffffffffffffffffffffffffff165f8054906101000a900473ffffffffffffffffffffffffffffffffffffffff1673ffffffffffffffffffffffffffffffffffffffff1614610fbc576040517f08c379a0000000000000000000000000000000000000000000000000000000008152600401610fb3906129eb565b60405180910390fd5b5f73ffffffffffffffffffffffffffffffffffffffff165f8054906101000a900473ffffffffffffffffffffffffffffffffffffffff1673ffffffffffffffffffffffffffffffffffffffff167f8be0079c531659141344cd1fd0a4f28419497f9722a3daafe3b4186f6b6457e060405160405180910390a35f805f6101000a81548173ffffffffffffffffffffffffffffffffffffffff021916908373ffffffffffffffffffffffffffffffffffffffff160217905550565b6002602052815f5260405f20602052805f5260405f205f9150915050805f0154908060010154908060020154905083565b5f805f9054906101000a900473ffffffffffffffffffffffffffffffffffffffff16905090565b5f80600380549050905060036040518061018001604052808381526020018981526020018881526020018781526020018681526020018581526020013373ffffffffffffffffffffffffffffffffffffffff1681526020015f81526020015f81526020015f151581526020015f151581526020015f1515815250908060018154018082558091505060019003905f5260205f2090600a02015f909190919091505f820151815f0155602082015181600101908161118b9190612ba6565b5060408201518160020190816111a19190612ba6565b5060608201518160030190816111b79190612ba6565b5060808201518160040190816111cd9190612ba6565b5060a08201518160050190816111e39190612ba6565b5060c0820151816006015f6101000a81548173ffffffffffffffffffffffffffffffffffffffff021916908373ffffffffffffffffffffffffffffffffffffffff16021790555060e082015181600701556101008201518160080155610120820151816009015f6101000a81548160ff0219169083151502179055506101408201518160090160016101000a81548160ff0219169083151502179055506101608201518160090160026101000a81548160ff0219169083151502179055505050807fc8c078bfee58e5822588f08b4509ed1eb5058e03f666cca84dd2d44bf5c288a888336040516112d5929190612c75565b60405180910390a28091505095945050505050565b6112f2611b5b565b60038281548110611306576113056126f3565b5b905f5260205f2090600a0201604051806101800160405290815f82015481526020016001820180546113379061265b565b80601f01602080910402602001604051908101604052809291908181526020018280546113639061265b565b80156113ae5780601f10611385576101008083540402835291602001916113ae565b820191905f5260205f20905b81548152906001019060200180831161139157829003601f168201915b505050505081526020016002820180546113c79061265b565b80601f01602080910402602001604051908101604052809291908181526020018280546113f39061265b565b801561143e5780601f106114155761010080835404028352916020019161143e565b820191905f5260205f20905b81548152906001019060200180831161142157829003601f168201915b505050505081526020016003820180546114579061265b565b80601f01602080910402602001604051908101604052809291908181526020018280546114839061265b565b80156114ce5780601f106114a5576101008083540402835291602001916114ce565b820191905f5260205f20905b8154815290600101906020018083116114b157829003601f168201915b505050505081526020016004820180546114e79061265b565b80601f01602080910402602001604051908101604052809291908181526020018280546115139061265b565b801561155e5780601f106115355761010080835404028352916020019161155e565b820191905f5260205f20905b81548152906001019060200180831161154157829003601f168201915b505050505081526020016005820180546115779061265b565b80601f01602080910402602001604051908101604052809291908181526020018280546115a39061265b565b80156115ee5780601f106115c5576101008083540402835291602001916115ee565b820191905f5260205f20905b8154815290600101906020018083116115d157829003601f168201915b50505050508152602001600682015f9054906101000a900473ffffffffffffffffffffffffffffffffffffffff1673ffffffffffffffffffffffffffffffffffffffff1673ffffffffffffffffffffffffffffffffffffffff1681526020016007820154815260200160088201548152602001600982015f9054906101000a900460ff161515151581526020016009820160019054906101000a900460ff161515151581526020016009820160029054906101000a900460ff1615151515815250509050919050565b60015f3373ffffffffffffffffffffffffffffffffffffffff1673ffffffffffffffffffffffffffffffffffffffff1681526020019081526020015f205f015f9054906101000a900460ff16611742576040517f08c379a000000000000000000000000000000000000000000000000000000000815260040161173990612ced565b60405180910390fd5b6003805490508210611789576040517f08c379a0000000000000000000000000000000000000000000000000000000008152600401611780906126d5565b60405180910390fd5b6003828154811061179d5761179c6126f3565b5b905f5260205f2090600a020160090160029054906101000a900460ff16156117fa576040517f08c379a00000000000000000000000000000000000000000000000000000000081526004016117f19061276a565b60405180910390fd5b6003828154811061180e5761180d6126f3565b5b905f5260205f2090600a020160090160019054906101000a900460ff16158015611865575060038281548110611847576118466126f3565b5b905f5260205f2090600a02016009015f9054906101000a900460ff16155b6118a4576040517f08c379a000000000000000000000000000000000000000000000000000000000815260040161189b90612d7b565b60405180910390fd5b5f600383815481106118b9576118b86126f3565b5b905f5260205f2090600a0201905081156118eb57600181600701546118de919061296e565b8160070181905550611905565b600181600801546118fc919061296e565b81600801819055505b3373ffffffffffffffffffffffffffffffffffffffff16837ff2913dbe661ee2acc4a046d8fbcdc792373bda34c41c6086484b5345e5785e5f8460405161194c9190612858565b60405180910390a3505050565b6001602052805f5260405f205f91509050805f015f9054906101000a900460ff1690805f0160019054906101000a900460ff16908060010154905083565b61199f611b54565b73ffffffffffffffffffffffffffffffffffffffff165f8054906101000a900473ffffffffffffffffffffffffffffffffffffffff1673ffffffffffffffffffffffffffffffffffffffff1614611a2b576040517f08c379a0000000000000000000000000000000000000000000000000000000008152600401611a22906129eb565b60405180910390fd5b5f73ffffffffffffffffffffffffffffffffffffffff168173ffffffffffffffffffffffffffffffffffffffff1603611a99576040517f08c379a0000000000000000000000000000000000000000000000000000000008152600401611a9090612e09565b60405180910390fd5b8073ffffffffffffffffffffffffffffffffffffffff165f8054906101000a900473ffffffffffffffffffffffffffffffffffffffff1673ffffffffffffffffffffffffffffffffffffffff167f8be0079c531659141344cd1fd0a4f28419497f9722a3daafe3b4186f6b6457e060405160405180910390a3805f806101000a81548173ffffffffffffffffffffffffffffffffffffffff021916908373ffffffffffffffffffffffffffffffffffffffff16021790555050565b5f33905090565b6040518061018001604052805f815260200160608152602001606081526020016060815260200160608152602001606081526020015f73ffffffffffffffffffffffffffffffffffffffff1681526020015f81526020015f81526020015f151581526020015f151581526020015f151581525090565b5f604051905090565b5f80fd5b5f80fd5b5f819050919050565b611bf481611be2565b8114611bfe575f80fd5b50565b5f81359050611c0f81611beb565b92915050565b5f60208284031215611c2a57611c29611bda565b5b5f611c3784828501611c01565b91505092915050565b611c4981611be2565b82525050565b5f81519050919050565b5f82825260208201905092915050565b5f5b83811015611c86578082015181840152602081019050611c6b565b5f8484015250505050565b5f601f19601f8301169050919050565b5f611cab82611c4f565b611cb58185611c59565b9350611cc5818560208601611c69565b611cce81611c91565b840191505092915050565b5f73ffffffffffffffffffffffffffffffffffffffff82169050919050565b5f611d0282611cd9565b9050919050565b611d1281611cf8565b82525050565b5f8115159050919050565b611d2c81611d18565b82525050565b5f61018082019050611d465f83018f611c40565b8181036020830152611d58818e611ca1565b90508181036040830152611d6c818d611ca1565b90508181036060830152611d80818c611ca1565b90508181036080830152611d94818b611ca1565b905081810360a0830152611da8818a611ca1565b9050611db760c0830189611d09565b611dc460e0830188611c40565b611dd2610100830187611c40565b611de0610120830186611d23565b611dee610140830185611d23565b611dfc610160830184611d23565b9d9c50505050505050505050505050565b5f8060408385031215611e2357611e22611bda565b5b5f611e3085828601611c01565b9250506020611e4185828601611c01565b9150509250929050565b5f81519050919050565b5f82825260208201905092915050565b5f819050602082019050919050565b611e7d81611be2565b82525050565b5f82825260208201905092915050565b5f611e9d82611c4f565b611ea78185611e83565b9350611eb7818560208601611c69565b611ec081611c91565b840191505092915050565b611ed481611cf8565b82525050565b611ee381611d18565b82525050565b5f61018083015f830151611eff5f860182611e74565b5060208301518482036020860152611f178282611e93565b91505060408301518482036040860152611f318282611e93565b91505060608301518482036060860152611f4b8282611e93565b91505060808301518482036080860152611f658282611e93565b91505060a083015184820360a0860152611f7f8282611e93565b91505060c0830151611f9460c0860182611ecb565b5060e0830151611fa760e0860182611e74565b50610100830151611fbc610100860182611e74565b50610120830151611fd1610120860182611eda565b50610140830151611fe6610140860182611eda565b50610160830151611ffb610160860182611eda565b508091505092915050565b5f6120118383611ee9565b905092915050565b5f602082019050919050565b5f61202f82611e4b565b6120398185611e55565b93508360208202850161204b85611e65565b805f5b8581101561208657848403895281516120678582612006565b945061207283612019565b925060208a0199505060018101905061204e565b50829750879550505050505092915050565b5f6020820190508181035f8301526120b08184612025565b905092915050565b6120c181611cf8565b81146120cb575f80fd5b50565b5f813590506120dc816120b8565b92915050565b5f80604083850312156120f8576120f7611bda565b5b5f61210585828601611c01565b9250506020612116858286016120ce565b9150509250929050565b5f6060820190506121335f830186611c40565b6121406020830185611c40565b61214d6040830184611c40565b949350505050565b5f6020820190506121685f830184611d09565b92915050565b5f80fd5b5f80fd5b7f4e487b71000000000000000000000000000000000000000000000000000000005f52604160045260245ffd5b6121ac82611c91565b810181811067ffffffffffffffff821117156121cb576121ca612176565b5b80604052505050565b5f6121dd611bd1565b90506121e982826121a3565b919050565b5f67ffffffffffffffff82111561220857612207612176565b5b61221182611c91565b9050602081019050919050565b828183375f83830152505050565b5f61223e612239846121ee565b6121d4565b90508281526020810184848401111561225a57612259612172565b5b61226584828561221e565b509392505050565b5f82601f8301126122815761228061216e565b5b813561229184826020860161222c565b91505092915050565b5f805f805f60a086880312156122b3576122b2611bda565b5b5f86013567ffffffffffffffff8111156122d0576122cf611bde565b5b6122dc8882890161226d565b955050602086013567ffffffffffffffff8111156122fd576122fc611bde565b5b6123098882890161226d565b945050604086013567ffffffffffffffff81111561232a57612329611bde565b5b6123368882890161226d565b935050606086013567ffffffffffffffff81111561235757612356611bde565b5b6123638882890161226d565b925050608086013567ffffffffffffffff81111561238457612383611bde565b5b6123908882890161226d565b9150509295509295909350565b5f6020820190506123b05f830184611c40565b92915050565b5f61018083015f8301516123cc5f860182611e74565b50602083015184820360208601526123e48282611e93565b915050604083015184820360408601526123fe8282611e93565b915050606083015184820360608601526124188282611e93565b915050608083015184820360808601526124328282611e93565b91505060a083015184820360a086015261244c8282611e93565b91505060c083015161246160c0860182611ecb565b5060e083015161247460e0860182611e74565b50610100830151612489610100860182611e74565b5061012083015161249e610120860182611eda565b506101408301516124b3610140860182611eda565b506101608301516124c8610160860182611eda565b508091505092915050565b5f6020820190508181035f8301526124eb81846123b6565b905092915050565b6124fc81611d18565b8114612506575f80fd5b50565b5f81359050612517816124f3565b92915050565b5f806040838503121561253357612532611bda565b5b5f61254085828601611c01565b925050602061255185828601612509565b9150509250929050565b5f602082840312156125705761256f611bda565b5b5f61257d848285016120ce565b91505092915050565b7f4e487b71000000000000000000000000000000000000000000000000000000005f52602160045260245ffd5b600481106125c4576125c3612586565b5b50565b5f8190506125d4826125b3565b919050565b5f6125e3826125c7565b9050919050565b6125f3816125d9565b82525050565b5f60608201905061260c5f830186611d23565b61261960208301856125ea565b6126266040830184611c40565b949350505050565b7f4e487b71000000000000000000000000000000000000000000000000000000005f52602260045260245ffd5b5f600282049050600182168061267257607f821691505b6020821081036126855761268461262e565b5b50919050565b7f496e76616c69642070726f706f73616c204964000000000000000000000000005f82015250565b5f6126bf601383611c59565b91506126ca8261268b565b602082019050919050565b5f6020820190508181035f8301526126ec816126b3565b9050919050565b7f4e487b71000000000000000000000000000000000000000000000000000000005f52603260045260245ffd5b7f50726f706f73616c2069732071756575656400000000000000000000000000005f82015250565b5f612754601283611c59565b915061275f82612720565b602082019050919050565b5f6020820190508181035f83015261278181612748565b9050919050565b7f50726f706f73616c206973207265766f6b6564200000000000000000000000005f82015250565b5f6127bc601483611c59565b91506127c782612788565b602082019050919050565b5f6020820190508181035f8301526127e9816127b0565b9050919050565b7f50726f706f73616c2069732065786563757465642000000000000000000000005f82015250565b5f612824601583611c59565b915061282f826127f0565b602082019050919050565b5f6020820190508181035f83015261285181612818565b9050919050565b5f60208201905061286b5f830184611d23565b92915050565b7f416d6f756e742073686f756c642062652067726561746572207468616e2030005f82015250565b5f6128a5601f83611c59565b91506128b082612871565b602082019050919050565b5f6020820190508181035f8301526128d281612899565b9050919050565b7f50726f706f73616c20697320616c7265616479206578656375746564200000005f82015250565b5f61290d601d83611c59565b9150612918826128d9565b602082019050919050565b5f6020820190508181035f83015261293a81612901565b9050919050565b7f4e487b71000000000000000000000000000000000000000000000000000000005f52601160045260245ffd5b5f61297882611be2565b915061298383611be2565b925082820190508082111561299b5761299a612941565b5b92915050565b7f4f776e61626c653a2063616c6c6572206973206e6f7420746865206f776e65725f82015250565b5f6129d5602083611c59565b91506129e0826129a1565b602082019050919050565b5f6020820190508181035f830152612a02816129c9565b9050919050565b5f819050815f5260205f209050919050565b5f6020601f8301049050919050565b5f82821b905092915050565b5f60088302612a657fffffffffffffffffffffffffffffffffffffffffffffffffffffffffffffffff82612a2a565b612a6f8683612a2a565b95508019841693508086168417925050509392505050565b5f819050919050565b5f612aaa612aa5612aa084611be2565b612a87565b611be2565b9050919050565b5f819050919050565b612ac383612a90565b612ad7612acf82612ab1565b848454612a36565b825550505050565b5f90565b612aeb612adf565b612af6818484612aba565b505050565b5b81811015612b1957612b0e5f82612ae3565b600181019050612afc565b5050565b601f821115612b5e57612b2f81612a09565b612b3884612a1b565b81016020851015612b47578190505b612b5b612b5385612a1b565b830182612afb565b50505b505050565b5f82821c905092915050565b5f612b7e5f1984600802612b63565b1980831691505092915050565b5f612b968383612b6f565b9150826002028217905092915050565b612baf82611c4f565b67ffffffffffffffff811115612bc857612bc7612176565b5b612bd2825461265b565b612bdd828285612b1d565b5f60209050601f831160018114612c0e575f8415612bfc578287015190505b612c068582612b8b565b865550612c6d565b601f198416612c1c86612a09565b5f5b82811015612c4357848901518255600182019150602085019450602081019050612c1e565b86831015612c605784890151612c5c601f891682612b6f565b8355505b6001600288020188555050505b505050505050565b5f6040820190508181035f830152612c8d8185611ca1565b9050612c9c6020830184611d09565b9392505050565b7f596f75206172656e277420616e2061637469766520636974697a656e000000005f82015250565b5f612cd7601c83611c59565b9150612ce282612ca3565b602082019050919050565b5f6020820190508181035f830152612d0481612ccb565b9050919050565b7f50726f706f73616c206973207265766f6b6564206f7220616c726561647920655f8201527f7865637574656400000000000000000000000000000000000000000000000000602082015250565b5f612d65602783611c59565b9150612d7082612d0b565b604082019050919050565b5f6020820190508181035f830152612d9281612d59565b9050919050565b7f4f776e61626c653a206e6577206f776e657220697320746865207a65726f20615f8201527f6464726573730000000000000000000000000000000000000000000000000000602082015250565b5f612df3602683611c59565b9150612dfe82612d99565b604082019050919050565b5f6020820190508181035f830152612e2081612de7565b905091905056fea26469706673582212203101a39fdfe7323afa7b93428cba94aafe0a7138ab1c5d192730a9a4463e74c264736f6c63430008150033",
  "immutableReferences": {},
  "source": "pragma solidity 0.8.21;\npragma abicoder v2;\n\nimport {Ownable} from './dependencies/open-zeppelin/Ownable.sol';\nimport {SafeMath} from './dependencies/open-zeppelin/SafeMath.sol';\n\n/**  @title Grant Governance Contract\n\n* - Create a proposal \n* - Revoke a proposal\n* - Queue a proposal\n* - Submit Vote to a proposal\n* - Stake ERC20 tokens or fiat currency for a proposal to gain voting powers\n* - Adjust voting powers based on tokens staked.\n\n**/\n\ncontract GrantGovernance is Ownable {\n\n    struct Proposals{\n        uint256 Id;\n        string title;\n        string description;\n        string category;\n        string body;\n        string estBudget;\n        address creator;\n        uint256 forVotes;\n        uint256 againstVotes;\n        bool executed;\n        bool revoked;\n        bool queued;\n\n    }\n\n    enum CitizenStatus{\n       NEWBIE,\n       VOTER,\n       NOMINATOR,\n       AMBASSADOR\n    }\n\n    struct Citizen {\n\n        bool isActive;\n        CitizenStatus status;\n        uint256 votingPower;\n    }\n\n    struct StakePerCitizen{\n        uint256 tokensStaked;\n        uint256 fiatStaked;\n        uint256 lastStakedTimestamp;\n    }\n    \n\n    mapping (address => Citizen) public citizens;\n\n    // every proposal will have map of stakes for citizens that have staked tokens\n    mapping (uint256 => mapping (address => StakePerCitizen)) public stakePerCitizen;\n\n    Proposals[] public  proposals;\n\n    event ProposalCreated (uint256 indexed proposalId, string title, address creator);\n    event Voted (uint256 indexed proposalId, address indexed voter, bool inFavor);\n    event ProposalExecuted (uint256 indexed proposalId, bool executed);\n    event TokensStaked (uint256 indexed proposalId, address indexed staker, uint256 amount);\n\n    function createProposal (string memory _title, string memory _description, string memory _category, string memory _body, string memory _estBudget) public returns (uint256){\n        uint proposalId = proposals.length;\n        proposals.push(Proposals(proposalId, _title, _description, _category, _body, _estBudget, msg.sender, 0, 0, false, false, false ));\n        emit ProposalCreated (proposalId, _title, msg.sender);\n        return proposalId;\n    }\n\n    function getProposal (uint256 _proposalId) public view returns (Proposals memory){\n        return proposals[_proposalId];\n    }\n\n    function getProposals () public view returns (Proposals [] memory){\n        return proposals;\n    }\n\n    function vote (uint256 _proposalId, bool _inFavor) public  {\n        \n        require (citizens[msg.sender].isActive, \"You aren't an active citizen\");\n        require (_proposalId < proposals.length, \"Invalid proposal Id\");\n        require (!proposals[_proposalId].queued, \"Proposal is queued\");\n\n        require (!proposals[_proposalId].revoked && !proposals[_proposalId].executed, \"Proposal is revoked or already executed\");\n\n        Proposals storage proposal = proposals[_proposalId];\n\n        if (_inFavor) {\n            proposal.forVotes = proposal.forVotes + 1;\n        }else {\n            proposal.againstVotes = proposal.againstVotes + 1;\n        }\n\n        emit Voted(_proposalId, msg.sender, _inFavor);\n    }\n\n    function executeProposal (uint256 _proposalId) public {\n\n        require (_proposalId < proposals.length, \"Invalid proposal Id\");\n        require (!proposals[_proposalId].queued, \"Proposal is queued\");\n\n        require (!proposals[_proposalId].revoked, \"Proposal is revoked \");\n        require (!proposals[_proposalId].executed, \"Proposal is executed \");\n\n        Proposals storage proposal = proposals[_proposalId];\n\n        if (proposal.forVotes > proposal.againstVotes){\n            proposal.executed = true;\n        }\n\n        emit ProposalExecuted (_proposalId, proposal.executed);\n    }\n\n    function stakeTokens (uint256 _proposalId, uint256 _amount) public{\n\n        require (_amount > 0, \"Amount should be greater than 0\");\n        require (!proposals[_proposalId].queued, \"Proposal is queued\");\n\n        require (!proposals[_proposalId].revoked, \"Proposal is revoked \");\n        require (!proposals[_proposalId].executed, \"Proposal is already executed \");\n\n        citizens[msg.sender].votingPower += _amount;\n        stakePerCitizen[_proposalId][msg.sender].tokensStaked += _amount;\n        stakePerCitizen[_proposalId][msg.sender].lastStakedTimestamp = block.timestamp;\n        citizens[msg.sender].isActive = true;\n        \n        emit TokensStaked (_proposalId, msg.sender, _amount);\n    }\n\n}",
  "sourcePath": "/Users/johngulbronson/DetroitArt/renaissance-contracts/contracts/grantGovernance.sol",
  "compiler": {
    "name": "solc",
    "version": "0.8.21+commit.d9974bed.Emscripten.clang"
  },
  "schemaVersion": "3.4.16",
  "updatedAt": "2024-03-02T00:00:00.404Z",
  "networkType": "ethereum",
  "devdoc": {
    "kind": "dev",
    "methods": {
      "owner()": {
        "details": "Returns the address of the current owner."
      },
      "renounceOwnership()": {
        "details": "Leaves the contract without owner. It will not be possible to call `onlyOwner` functions anymore. Can only be called by the current owner. NOTE: Renouncing ownership will leave the contract without an owner, thereby removing any functionality that is only available to the owner."
      },
      "transferOwnership(address)": {
        "details": "Transfers ownership of the contract to a new account (`newOwner`). Can only be called by the current owner."
      }
    },
    "title": "Grant Governance Contract - Create a proposal  - Revoke a proposal - Queue a proposal - Submit Vote to a proposal - Stake ERC20 tokens or fiat currency for a proposal to gain voting powers - Adjust voting powers based on tokens staked.*",
    "version": 1
  },
  "userdoc": {
    "kind": "user",
    "methods": {},
    "version": 1
  }
}