{
  "contractName": "GrantGovernance",
  "abi": [
    {
      "anonymous": false,
      "inputs": [
        {
          "indexed": true,
          "internalType": "address",
          "name": "previousOwner",
          "type": "address"
        },
        {
          "indexed": true,
          "internalType": "address",
          "name": "newOwner",
          "type": "address"
        }
      ],
      "name": "OwnershipTransferred",
      "type": "event"
    },
    {
      "anonymous": false,
      "inputs": [
        {
          "indexed": true,
          "internalType": "uint256",
          "name": "proposalId",
          "type": "uint256"
        },
        {
          "indexed": false,
          "internalType": "string",
          "name": "description",
          "type": "string"
        },
        {
          "indexed": false,
          "internalType": "address",
          "name": "creator",
          "type": "address"
        }
      ],
      "name": "ProposalCreated",
      "type": "event"
    },
    {
      "anonymous": false,
      "inputs": [
        {
          "indexed": true,
          "internalType": "uint256",
          "name": "proposalId",
          "type": "uint256"
        },
        {
          "indexed": false,
          "internalType": "bool",
          "name": "executed",
          "type": "bool"
        }
      ],
      "name": "ProposalExecuted",
      "type": "event"
    },
    {
      "anonymous": false,
      "inputs": [
        {
          "indexed": true,
          "internalType": "uint256",
          "name": "proposalId",
          "type": "uint256"
        },
        {
          "indexed": true,
          "internalType": "address",
          "name": "staker",
          "type": "address"
        },
        {
          "indexed": false,
          "internalType": "uint256",
          "name": "amount",
          "type": "uint256"
        }
      ],
      "name": "TokensStaked",
      "type": "event"
    },
    {
      "anonymous": false,
      "inputs": [
        {
          "indexed": true,
          "internalType": "uint256",
          "name": "proposalId",
          "type": "uint256"
        },
        {
          "indexed": true,
          "internalType": "address",
          "name": "voter",
          "type": "address"
        },
        {
          "indexed": false,
          "internalType": "bool",
          "name": "inFavor",
          "type": "bool"
        }
      ],
      "name": "Voted",
      "type": "event"
    },
    {
      "inputs": [
        {
          "internalType": "address",
          "name": "",
          "type": "address"
        }
      ],
      "name": "citizens",
      "outputs": [
        {
          "internalType": "bool",
          "name": "isActive",
          "type": "bool"
        },
        {
          "internalType": "enum GrantGovernance.CitizenStatus",
          "name": "status",
          "type": "uint8"
        },
        {
          "internalType": "uint256",
          "name": "votingPower",
          "type": "uint256"
        }
      ],
      "stateMutability": "view",
      "type": "function"
    },
    {
      "inputs": [],
      "name": "owner",
      "outputs": [
        {
          "internalType": "address",
          "name": "",
          "type": "address"
        }
      ],
      "stateMutability": "view",
      "type": "function"
    },
    {
      "inputs": [
        {
          "internalType": "uint256",
          "name": "",
          "type": "uint256"
        }
      ],
      "name": "proposals",
      "outputs": [
        {
          "internalType": "uint256",
          "name": "Id",
          "type": "uint256"
        },
        {
          "internalType": "string",
          "name": "description",
          "type": "string"
        },
        {
          "internalType": "address",
          "name": "creator",
          "type": "address"
        },
        {
          "internalType": "uint256",
          "name": "forVotes",
          "type": "uint256"
        },
        {
          "internalType": "uint256",
          "name": "againstVotes",
          "type": "uint256"
        },
        {
          "internalType": "bool",
          "name": "executed",
          "type": "bool"
        },
        {
          "internalType": "bool",
          "name": "revoked",
          "type": "bool"
        },
        {
          "internalType": "bool",
          "name": "queued",
          "type": "bool"
        }
      ],
      "stateMutability": "view",
      "type": "function"
    },
    {
      "inputs": [],
      "name": "renounceOwnership",
      "outputs": [],
      "stateMutability": "nonpayable",
      "type": "function"
    },
    {
      "inputs": [
        {
          "internalType": "uint256",
          "name": "",
          "type": "uint256"
        },
        {
          "internalType": "address",
          "name": "",
          "type": "address"
        }
      ],
      "name": "stakePerCitizen",
      "outputs": [
        {
          "internalType": "uint256",
          "name": "tokensStaked",
          "type": "uint256"
        },
        {
          "internalType": "uint256",
          "name": "fiatStaked",
          "type": "uint256"
        },
        {
          "internalType": "uint256",
          "name": "lastStakedTimestamp",
          "type": "uint256"
        }
      ],
      "stateMutability": "view",
      "type": "function"
    },
    {
      "inputs": [
        {
          "internalType": "address",
          "name": "newOwner",
          "type": "address"
        }
      ],
      "name": "transferOwnership",
      "outputs": [],
      "stateMutability": "nonpayable",
      "type": "function"
    },
    {
      "inputs": [
        {
          "internalType": "string",
          "name": "_description",
          "type": "string"
        }
      ],
      "name": "createProposal",
      "outputs": [
        {
          "internalType": "uint256",
          "name": "",
          "type": "uint256"
        }
      ],
      "stateMutability": "nonpayable",
      "type": "function"
    },
    {
      "inputs": [
        {
          "internalType": "uint256",
          "name": "_proposalId",
          "type": "uint256"
        },
        {
          "internalType": "bool",
          "name": "_inFavor",
          "type": "bool"
        }
      ],
      "name": "vote",
      "outputs": [],
      "stateMutability": "nonpayable",
      "type": "function"
    },
    {
      "inputs": [
        {
          "internalType": "uint256",
          "name": "_proposalId",
          "type": "uint256"
        }
      ],
      "name": "executeProposal",
      "outputs": [],
      "stateMutability": "nonpayable",
      "type": "function"
    },
    {
      "inputs": [
        {
          "internalType": "uint256",
          "name": "_proposalId",
          "type": "uint256"
        },
        {
          "internalType": "uint256",
          "name": "_amount",
          "type": "uint256"
        }
      ],
      "name": "stakeTokens",
      "outputs": [],
      "stateMutability": "nonpayable",
      "type": "function"
    }
  ],
  "bytecode": "0x608060405234801561000f575f80fd5b505f61001f6100c060201b60201c565b9050805f806101000a81548173ffffffffffffffffffffffffffffffffffffffff021916908373ffffffffffffffffffffffffffffffffffffffff1602179055508073ffffffffffffffffffffffffffffffffffffffff165f73ffffffffffffffffffffffffffffffffffffffff167f8be0079c531659141344cd1fd0a4f28419497f9722a3daafe3b4186f6b6457e060405160405180910390a3506100c7565b5f33905090565b611e5d806100d45f395ff3fe608060405234801561000f575f80fd5b506004361061009c575f3560e01c8063817c18d411610064578063817c18d4146101495780638da5cb5b1461017b578063c9d27afe14610199578063d4f910a7146101b5578063f2fde38b146101e75761009c565b8063013cf08b146100a05780630d61b519146100d75780633b7b6188146100f357806349c2a1a61461010f578063715018a61461013f575b5f80fd5b6100ba60048036038101906100b591906110d3565b610203565b6040516100ce9897969594939291906111f0565b60405180910390f35b6100f160048036038101906100ec91906110d3565b610321565b005b61010d60048036038101906101089190611273565b610556565b005b610129600480360381019061012491906113dd565b6108a1565b6040516101369190611424565b60405180910390f35b610147610a45565b005b610163600480360381019061015e9190611467565b610b93565b604051610172939291906114a5565b60405180910390f35b610183610bc4565b60405161019091906114da565b60405180910390f35b6101b360048036038101906101ae919061151d565b610beb565b005b6101cf60048036038101906101ca919061155b565b610e8d565b6040516101de939291906115f9565b60405180910390f35b61020160048036038101906101fc919061155b565b610ecb565b005b60038181548110610212575f80fd5b905f5260205f2090600602015f91509050805f0154908060010180546102379061165b565b80601f01602080910402602001604051908101604052809291908181526020018280546102639061165b565b80156102ae5780601f10610285576101008083540402835291602001916102ae565b820191905f5260205f20905b81548152906001019060200180831161029157829003601f168201915b505050505090806002015f9054906101000a900473ffffffffffffffffffffffffffffffffffffffff1690806003015490806004015490806005015f9054906101000a900460ff16908060050160019054906101000a900460ff16908060050160029054906101000a900460ff16905088565b6003805490508110610368576040517f08c379a000000000000000000000000000000000000000000000000000000000815260040161035f906116d5565b60405180910390fd5b6003818154811061037c5761037b6116f3565b5b905f5260205f20906006020160050160029054906101000a900460ff16156103d9576040517f08c379a00000000000000000000000000000000000000000000000000000000081526004016103d09061176a565b60405180910390fd5b600381815481106103ed576103ec6116f3565b5b905f5260205f20906006020160050160019054906101000a900460ff161561044a576040517f08c379a0000000000000000000000000000000000000000000000000000000008152600401610441906117d2565b60405180910390fd5b6003818154811061045e5761045d6116f3565b5b905f5260205f2090600602016005015f9054906101000a900460ff16156104ba576040517f08c379a00000000000000000000000000000000000000000000000000000000081526004016104b19061183a565b60405180910390fd5b5f600382815481106104cf576104ce6116f3565b5b905f5260205f209060060201905080600401548160030154111561050a576001816005015f6101000a81548160ff0219169083151502179055505b817f948f4a9cd986f1118c3fbd459f7a22b23c0693e1ca3ef06a6a8be5aa7d39cc03826005015f9054906101000a900460ff1660405161054a9190611858565b60405180910390a25050565b5f8111610598576040517f08c379a000000000000000000000000000000000000000000000000000000000815260040161058f906118bb565b60405180910390fd5b600382815481106105ac576105ab6116f3565b5b905f5260205f20906006020160050160029054906101000a900460ff1615610609576040517f08c379a00000000000000000000000000000000000000000000000000000000081526004016106009061176a565b60405180910390fd5b6003828154811061061d5761061c6116f3565b5b905f5260205f20906006020160050160019054906101000a900460ff161561067a576040517f08c379a0000000000000000000000000000000000000000000000000000000008152600401610671906117d2565b60405180910390fd5b6003828154811061068e5761068d6116f3565b5b905f5260205f2090600602016005015f9054906101000a900460ff16156106ea576040517f08c379a00000000000000000000000000000000000000000000000000000000081526004016106e190611923565b60405180910390fd5b8060015f3373ffffffffffffffffffffffffffffffffffffffff1673ffffffffffffffffffffffffffffffffffffffff1681526020019081526020015f206001015f828254610739919061196e565b925050819055508060025f8481526020019081526020015f205f3373ffffffffffffffffffffffffffffffffffffffff1673ffffffffffffffffffffffffffffffffffffffff1681526020019081526020015f205f015f82825461079d919061196e565b925050819055504260025f8481526020019081526020015f205f3373ffffffffffffffffffffffffffffffffffffffff1673ffffffffffffffffffffffffffffffffffffffff1681526020019081526020015f20600201819055506001805f3373ffffffffffffffffffffffffffffffffffffffff1673ffffffffffffffffffffffffffffffffffffffff1681526020019081526020015f205f015f6101000a81548160ff0219169083151502179055503373ffffffffffffffffffffffffffffffffffffffff16827f3c2905e5cda90fbc3e1296ec4bc49130e39b6203bb1d13b4a855ced4d920e16f836040516108959190611424565b60405180910390a35050565b5f80600380549050905060036040518061010001604052808381526020018581526020013373ffffffffffffffffffffffffffffffffffffffff1681526020015f81526020015f81526020015f151581526020015f151581526020015f1515815250908060018154018082558091505060019003905f5260205f2090600602015f909190919091505f820151815f015560208201518160010190816109469190611b3e565b506040820151816002015f6101000a81548173ffffffffffffffffffffffffffffffffffffffff021916908373ffffffffffffffffffffffffffffffffffffffff160217905550606082015181600301556080820151816004015560a0820151816005015f6101000a81548160ff02191690831515021790555060c08201518160050160016101000a81548160ff02191690831515021790555060e08201518160050160026101000a81548160ff0219169083151502179055505050807fc8c078bfee58e5822588f08b4509ed1eb5058e03f666cca84dd2d44bf5c288a88433604051610a34929190611c0d565b60405180910390a280915050919050565b610a4d611088565b73ffffffffffffffffffffffffffffffffffffffff165f8054906101000a900473ffffffffffffffffffffffffffffffffffffffff1673ffffffffffffffffffffffffffffffffffffffff1614610ad9576040517f08c379a0000000000000000000000000000000000000000000000000000000008152600401610ad090611c85565b60405180910390fd5b5f73ffffffffffffffffffffffffffffffffffffffff165f8054906101000a900473ffffffffffffffffffffffffffffffffffffffff1673ffffffffffffffffffffffffffffffffffffffff167f8be0079c531659141344cd1fd0a4f28419497f9722a3daafe3b4186f6b6457e060405160405180910390a35f805f6101000a81548173ffffffffffffffffffffffffffffffffffffffff021916908373ffffffffffffffffffffffffffffffffffffffff160217905550565b6002602052815f5260405f20602052805f5260405f205f9150915050805f0154908060010154908060020154905083565b5f805f9054906101000a900473ffffffffffffffffffffffffffffffffffffffff16905090565b60015f3373ffffffffffffffffffffffffffffffffffffffff1673ffffffffffffffffffffffffffffffffffffffff1681526020019081526020015f205f015f9054906101000a900460ff16610c76576040517f08c379a0000000000000000000000000000000000000000000000000000000008152600401610c6d90611ced565b60405180910390fd5b6003805490508210610cbd576040517f08c379a0000000000000000000000000000000000000000000000000000000008152600401610cb4906116d5565b60405180910390fd5b60038281548110610cd157610cd06116f3565b5b905f5260205f20906006020160050160029054906101000a900460ff1615610d2e576040517f08c379a0000000000000000000000000000000000000000000000000000000008152600401610d259061176a565b60405180910390fd5b60038281548110610d4257610d416116f3565b5b905f5260205f20906006020160050160019054906101000a900460ff16158015610d99575060038281548110610d7b57610d7a6116f3565b5b905f5260205f2090600602016005015f9054906101000a900460ff16155b610dd8576040517f08c379a0000000000000000000000000000000000000000000000000000000008152600401610dcf90611d7b565b60405180910390fd5b5f60038381548110610ded57610dec6116f3565b5b905f5260205f20906006020190508115610e1f5760018160030154610e12919061196e565b8160030181905550610e39565b60018160040154610e30919061196e565b81600401819055505b3373ffffffffffffffffffffffffffffffffffffffff16837ff2913dbe661ee2acc4a046d8fbcdc792373bda34c41c6086484b5345e5785e5f84604051610e809190611858565b60405180910390a3505050565b6001602052805f5260405f205f91509050805f015f9054906101000a900460ff1690805f0160019054906101000a900460ff16908060010154905083565b610ed3611088565b73ffffffffffffffffffffffffffffffffffffffff165f8054906101000a900473ffffffffffffffffffffffffffffffffffffffff1673ffffffffffffffffffffffffffffffffffffffff1614610f5f576040517f08c379a0000000000000000000000000000000000000000000000000000000008152600401610f5690611c85565b60405180910390fd5b5f73ffffffffffffffffffffffffffffffffffffffff168173ffffffffffffffffffffffffffffffffffffffff1603610fcd576040517f08c379a0000000000000000000000000000000000000000000000000000000008152600401610fc490611e09565b60405180910390fd5b8073ffffffffffffffffffffffffffffffffffffffff165f8054906101000a900473ffffffffffffffffffffffffffffffffffffffff1673ffffffffffffffffffffffffffffffffffffffff167f8be0079c531659141344cd1fd0a4f28419497f9722a3daafe3b4186f6b6457e060405160405180910390a3805f806101000a81548173ffffffffffffffffffffffffffffffffffffffff021916908373ffffffffffffffffffffffffffffffffffffffff16021790555050565b5f33905090565b5f604051905090565b5f80fd5b5f80fd5b5f819050919050565b6110b2816110a0565b81146110bc575f80fd5b50565b5f813590506110cd816110a9565b92915050565b5f602082840312156110e8576110e7611098565b5b5f6110f5848285016110bf565b91505092915050565b611107816110a0565b82525050565b5f81519050919050565b5f82825260208201905092915050565b5f5b83811015611144578082015181840152602081019050611129565b5f8484015250505050565b5f601f19601f8301169050919050565b5f6111698261110d565b6111738185611117565b9350611183818560208601611127565b61118c8161114f565b840191505092915050565b5f73ffffffffffffffffffffffffffffffffffffffff82169050919050565b5f6111c082611197565b9050919050565b6111d0816111b6565b82525050565b5f8115159050919050565b6111ea816111d6565b82525050565b5f610100820190506112045f83018b6110fe565b8181036020830152611216818a61115f565b905061122560408301896111c7565b61123260608301886110fe565b61123f60808301876110fe565b61124c60a08301866111e1565b61125960c08301856111e1565b61126660e08301846111e1565b9998505050505050505050565b5f806040838503121561128957611288611098565b5b5f611296858286016110bf565b92505060206112a7858286016110bf565b9150509250929050565b5f80fd5b5f80fd5b7f4e487b71000000000000000000000000000000000000000000000000000000005f52604160045260245ffd5b6112ef8261114f565b810181811067ffffffffffffffff8211171561130e5761130d6112b9565b5b80604052505050565b5f61132061108f565b905061132c82826112e6565b919050565b5f67ffffffffffffffff82111561134b5761134a6112b9565b5b6113548261114f565b9050602081019050919050565b828183375f83830152505050565b5f61138161137c84611331565b611317565b90508281526020810184848401111561139d5761139c6112b5565b5b6113a8848285611361565b509392505050565b5f82601f8301126113c4576113c36112b1565b5b81356113d484826020860161136f565b91505092915050565b5f602082840312156113f2576113f1611098565b5b5f82013567ffffffffffffffff81111561140f5761140e61109c565b5b61141b848285016113b0565b91505092915050565b5f6020820190506114375f8301846110fe565b92915050565b611446816111b6565b8114611450575f80fd5b50565b5f813590506114618161143d565b92915050565b5f806040838503121561147d5761147c611098565b5b5f61148a858286016110bf565b925050602061149b85828601611453565b9150509250929050565b5f6060820190506114b85f8301866110fe565b6114c560208301856110fe565b6114d260408301846110fe565b949350505050565b5f6020820190506114ed5f8301846111c7565b92915050565b6114fc816111d6565b8114611506575f80fd5b50565b5f81359050611517816114f3565b92915050565b5f806040838503121561153357611532611098565b5b5f611540858286016110bf565b925050602061155185828601611509565b9150509250929050565b5f602082840312156115705761156f611098565b5b5f61157d84828501611453565b91505092915050565b7f4e487b71000000000000000000000000000000000000000000000000000000005f52602160045260245ffd5b600481106115c4576115c3611586565b5b50565b5f8190506115d4826115b3565b919050565b5f6115e3826115c7565b9050919050565b6115f3816115d9565b82525050565b5f60608201905061160c5f8301866111e1565b61161960208301856115ea565b61162660408301846110fe565b949350505050565b7f4e487b71000000000000000000000000000000000000000000000000000000005f52602260045260245ffd5b5f600282049050600182168061167257607f821691505b6020821081036116855761168461162e565b5b50919050565b7f496e76616c69642070726f706f73616c204964000000000000000000000000005f82015250565b5f6116bf601383611117565b91506116ca8261168b565b602082019050919050565b5f6020820190508181035f8301526116ec816116b3565b9050919050565b7f4e487b71000000000000000000000000000000000000000000000000000000005f52603260045260245ffd5b7f50726f706f73616c2069732071756575656400000000000000000000000000005f82015250565b5f611754601283611117565b915061175f82611720565b602082019050919050565b5f6020820190508181035f83015261178181611748565b9050919050565b7f50726f706f73616c206973207265766f6b6564200000000000000000000000005f82015250565b5f6117bc601483611117565b91506117c782611788565b602082019050919050565b5f6020820190508181035f8301526117e9816117b0565b9050919050565b7f50726f706f73616c2069732065786563757465642000000000000000000000005f82015250565b5f611824601583611117565b915061182f826117f0565b602082019050919050565b5f6020820190508181035f83015261185181611818565b9050919050565b5f60208201905061186b5f8301846111e1565b92915050565b7f416d6f756e742073686f756c642062652067726561746572207468616e2030005f82015250565b5f6118a5601f83611117565b91506118b082611871565b602082019050919050565b5f6020820190508181035f8301526118d281611899565b9050919050565b7f50726f706f73616c20697320616c7265616479206578656375746564200000005f82015250565b5f61190d601d83611117565b9150611918826118d9565b602082019050919050565b5f6020820190508181035f83015261193a81611901565b9050919050565b7f4e487b71000000000000000000000000000000000000000000000000000000005f52601160045260245ffd5b5f611978826110a0565b9150611983836110a0565b925082820190508082111561199b5761199a611941565b5b92915050565b5f819050815f5260205f209050919050565b5f6020601f8301049050919050565b5f82821b905092915050565b5f600883026119fd7fffffffffffffffffffffffffffffffffffffffffffffffffffffffffffffffff826119c2565b611a0786836119c2565b95508019841693508086168417925050509392505050565b5f819050919050565b5f611a42611a3d611a38846110a0565b611a1f565b6110a0565b9050919050565b5f819050919050565b611a5b83611a28565b611a6f611a6782611a49565b8484546119ce565b825550505050565b5f90565b611a83611a77565b611a8e818484611a52565b505050565b5b81811015611ab157611aa65f82611a7b565b600181019050611a94565b5050565b601f821115611af657611ac7816119a1565b611ad0846119b3565b81016020851015611adf578190505b611af3611aeb856119b3565b830182611a93565b50505b505050565b5f82821c905092915050565b5f611b165f1984600802611afb565b1980831691505092915050565b5f611b2e8383611b07565b9150826002028217905092915050565b611b478261110d565b67ffffffffffffffff811115611b6057611b5f6112b9565b5b611b6a825461165b565b611b75828285611ab5565b5f60209050601f831160018114611ba6575f8415611b94578287015190505b611b9e8582611b23565b865550611c05565b601f198416611bb4866119a1565b5f5b82811015611bdb57848901518255600182019150602085019450602081019050611bb6565b86831015611bf85784890151611bf4601f891682611b07565b8355505b6001600288020188555050505b505050505050565b5f6040820190508181035f830152611c25818561115f565b9050611c3460208301846111c7565b9392505050565b7f4f776e61626c653a2063616c6c6572206973206e6f7420746865206f776e65725f82015250565b5f611c6f602083611117565b9150611c7a82611c3b565b602082019050919050565b5f6020820190508181035f830152611c9c81611c63565b9050919050565b7f596f75206172656e277420616e2061637469766520636974697a656e000000005f82015250565b5f611cd7601c83611117565b9150611ce282611ca3565b602082019050919050565b5f6020820190508181035f830152611d0481611ccb565b9050919050565b7f50726f706f73616c206973207265766f6b6564206f7220616c726561647920655f8201527f7865637574656400000000000000000000000000000000000000000000000000602082015250565b5f611d65602783611117565b9150611d7082611d0b565b604082019050919050565b5f6020820190508181035f830152611d9281611d59565b9050919050565b7f4f776e61626c653a206e6577206f776e657220697320746865207a65726f20615f8201527f6464726573730000000000000000000000000000000000000000000000000000602082015250565b5f611df3602683611117565b9150611dfe82611d99565b604082019050919050565b5f6020820190508181035f830152611e2081611de7565b905091905056fea264697066735822122084663921dda63149423a62a3abd765145e07d6ef1414e75b1dd7055a47723a3a64736f6c63430008150033",
  "immutableReferences": {},
  "source": "pragma solidity 0.8.21;\npragma abicoder v2;\n\nimport {Ownable} from './dependencies/open-zeppelin/Ownable.sol';\nimport {SafeMath} from './dependencies/open-zeppelin/SafeMath.sol';\n\n/**  @title Grant Governance Contract\n\n* - Create a proposal \n* - Revoke a proposal\n* - Queue a proposal\n* - Submit Vote to a proposal\n* - Stake ERC20 tokens or fiat currency for a proposal to gain voting powers\n* - Adjust voting powers based on tokens staked.\n\n**/\n\ncontract GrantGovernance is Ownable {\n\n    struct Proposals{\n        uint256 Id;\n        string description;\n        address creator;\n        uint256 forVotes;\n        uint256 againstVotes;\n        bool executed;\n        bool revoked;\n        bool queued;\n\n    }\n\n    enum CitizenStatus{\n       NEWBIE,\n       VOTER,\n       NOMINATOR,\n       AMBASSADOR\n    }\n\n    struct Citizen {\n\n        bool isActive;\n        CitizenStatus status;\n        uint256 votingPower;\n    }\n\n    struct StakePerCitizen{\n        uint256 tokensStaked;\n        uint256 fiatStaked;\n        uint256 lastStakedTimestamp;\n    }\n    \n\n    mapping (address => Citizen) public citizens;\n\n    // every proposal will have map of stakes for citizens that have staked tokens\n    mapping (uint256 => mapping (address => StakePerCitizen)) public stakePerCitizen;\n\n    Proposals[] public proposals;\n\n    event ProposalCreated (uint256 indexed proposalId, string description, address creator);\n    event Voted (uint256 indexed proposalId, address indexed voter, bool inFavor);\n    event ProposalExecuted (uint256 indexed proposalId, bool executed);\n    event TokensStaked (uint256 indexed proposalId, address indexed staker, uint256 amount);\n\n    function createProposal (string memory _description) public returns (uint256){\n        uint proposalId = proposals.length;\n        proposals.push(Proposals(proposalId, _description, msg.sender, 0, 0, false, false, false ));\n        emit ProposalCreated (proposalId, _description, msg.sender);\n        return proposalId;\n    }\n\n    function vote  (uint256 _proposalId, bool _inFavor) public  {\n        \n        require (citizens[msg.sender].isActive, \"You aren't an active citizen\");\n        require (_proposalId < proposals.length, \"Invalid proposal Id\");\n        require (!proposals[_proposalId].queued, \"Proposal is queued\");\n\n        require (!proposals[_proposalId].revoked && !proposals[_proposalId].executed, \"Proposal is revoked or already executed\");\n\n        Proposals storage proposal = proposals[_proposalId];\n\n        if (_inFavor) {\n            proposal.forVotes = proposal.forVotes + 1;\n        }else {\n            proposal.againstVotes = proposal.againstVotes + 1;\n        }\n\n        emit Voted(_proposalId, msg.sender, _inFavor);\n    }\n\n    function executeProposal (uint256 _proposalId) public {\n\n        require (_proposalId < proposals.length, \"Invalid proposal Id\");\n        require (!proposals[_proposalId].queued, \"Proposal is queued\");\n\n        require (!proposals[_proposalId].revoked, \"Proposal is revoked \");\n        require (!proposals[_proposalId].executed, \"Proposal is executed \");\n\n        Proposals storage proposal = proposals[_proposalId];\n\n        if (proposal.forVotes > proposal.againstVotes){\n            proposal.executed = true;\n        }\n\n        emit ProposalExecuted (_proposalId, proposal.executed);\n    }\n\n    function stakeTokens (uint256 _proposalId, uint256 _amount) public{\n\n        require (_amount > 0, \"Amount should be greater than 0\");\n        require (!proposals[_proposalId].queued, \"Proposal is queued\");\n\n        require (!proposals[_proposalId].revoked, \"Proposal is revoked \");\n        require (!proposals[_proposalId].executed, \"Proposal is already executed \");\n\n        citizens[msg.sender].votingPower += _amount;\n        stakePerCitizen[_proposalId][msg.sender].tokensStaked += _amount;\n        stakePerCitizen[_proposalId][msg.sender].lastStakedTimestamp = block.timestamp;\n        citizens[msg.sender].isActive = true;\n        \n        emit TokensStaked (_proposalId, msg.sender, _amount);\n    }\n\n}",
  "sourcePath": "/Users/shreedharpawar/Buidl/renaissance-contracts/contracts/grantGovernance.sol",
  "compiler": {
    "name": "solc",
    "version": "0.8.21+commit.d9974bed.Emscripten.clang"
  },
  "schemaVersion": "3.4.16",
  "updatedAt": "2024-02-27T00:01:46.053Z",
  "devdoc": {
    "kind": "dev",
    "methods": {
      "owner()": {
        "details": "Returns the address of the current owner."
      },
      "renounceOwnership()": {
        "details": "Leaves the contract without owner. It will not be possible to call `onlyOwner` functions anymore. Can only be called by the current owner. NOTE: Renouncing ownership will leave the contract without an owner, thereby removing any functionality that is only available to the owner."
      },
      "transferOwnership(address)": {
        "details": "Transfers ownership of the contract to a new account (`newOwner`). Can only be called by the current owner."
      }
    },
    "title": "Grant Governance Contract - Create a proposal  - Revoke a proposal - Queue a proposal - Submit Vote to a proposal - Stake ERC20 tokens or fiat currency for a proposal to gain voting powers - Adjust voting powers based on tokens staked.*",
    "version": 1
  },
  "userdoc": {
    "kind": "user",
    "methods": {},
    "version": 1
  }
}