{
  "contractName": "GrantGovernance",
  "abi": [
    {
      "anonymous": false,
      "inputs": [
        {
          "indexed": true,
          "internalType": "address",
          "name": "previousOwner",
          "type": "address"
        },
        {
          "indexed": true,
          "internalType": "address",
          "name": "newOwner",
          "type": "address"
        }
      ],
      "name": "OwnershipTransferred",
      "type": "event"
    },
    {
      "anonymous": false,
      "inputs": [
        {
          "indexed": true,
          "internalType": "uint256",
          "name": "proposalId",
          "type": "uint256"
        },
        {
          "indexed": false,
          "internalType": "string",
          "name": "description",
          "type": "string"
        },
        {
          "indexed": false,
          "internalType": "address",
          "name": "creator",
          "type": "address"
        }
      ],
      "name": "ProposalCreated",
      "type": "event"
    },
    {
      "anonymous": false,
      "inputs": [
        {
          "indexed": true,
          "internalType": "uint256",
          "name": "proposalId",
          "type": "uint256"
        },
        {
          "indexed": false,
          "internalType": "bool",
          "name": "executed",
          "type": "bool"
        }
      ],
      "name": "ProposalExecuted",
      "type": "event"
    },
    {
      "anonymous": false,
      "inputs": [
        {
          "indexed": true,
          "internalType": "uint256",
          "name": "proposalId",
          "type": "uint256"
        },
        {
          "indexed": true,
          "internalType": "address",
          "name": "staker",
          "type": "address"
        },
        {
          "indexed": false,
          "internalType": "uint256",
          "name": "amount",
          "type": "uint256"
        }
      ],
      "name": "TokensStaked",
      "type": "event"
    },
    {
      "anonymous": false,
      "inputs": [
        {
          "indexed": true,
          "internalType": "uint256",
          "name": "proposalId",
          "type": "uint256"
        },
        {
          "indexed": true,
          "internalType": "address",
          "name": "voter",
          "type": "address"
        },
        {
          "indexed": false,
          "internalType": "bool",
          "name": "inFavor",
          "type": "bool"
        }
      ],
      "name": "Voted",
      "type": "event"
    },
    {
      "inputs": [
        {
          "internalType": "address",
          "name": "",
          "type": "address"
        }
      ],
      "name": "citizens",
      "outputs": [
        {
          "internalType": "bool",
          "name": "isActive",
          "type": "bool"
        },
        {
          "internalType": "enum GrantGovernance.CitizenStatus",
          "name": "status",
          "type": "uint8"
        },
        {
          "internalType": "uint256",
          "name": "votingPower",
          "type": "uint256"
        }
      ],
      "stateMutability": "view",
      "type": "function",
      "constant": true
    },
    {
      "inputs": [],
      "name": "owner",
      "outputs": [
        {
          "internalType": "address",
          "name": "",
          "type": "address"
        }
      ],
      "stateMutability": "view",
      "type": "function",
      "constant": true
    },
    {
      "inputs": [
        {
          "internalType": "uint256",
          "name": "",
          "type": "uint256"
        }
      ],
      "name": "proposals",
      "outputs": [
        {
          "internalType": "uint256",
          "name": "Id",
          "type": "uint256"
        },
        {
          "internalType": "string",
          "name": "description",
          "type": "string"
        },
        {
          "internalType": "address",
          "name": "creator",
          "type": "address"
        },
        {
          "internalType": "uint256",
          "name": "forVotes",
          "type": "uint256"
        },
        {
          "internalType": "uint256",
          "name": "againstVotes",
          "type": "uint256"
        },
        {
          "internalType": "bool",
          "name": "executed",
          "type": "bool"
        },
        {
          "internalType": "bool",
          "name": "revoked",
          "type": "bool"
        },
        {
          "internalType": "bool",
          "name": "queued",
          "type": "bool"
        }
      ],
      "stateMutability": "view",
      "type": "function",
      "constant": true
    },
    {
      "inputs": [],
      "name": "renounceOwnership",
      "outputs": [],
      "stateMutability": "nonpayable",
      "type": "function"
    },
    {
      "inputs": [
        {
          "internalType": "uint256",
          "name": "",
          "type": "uint256"
        },
        {
          "internalType": "address",
          "name": "",
          "type": "address"
        }
      ],
      "name": "stakePerCitizen",
      "outputs": [
        {
          "internalType": "uint256",
          "name": "tokensStaked",
          "type": "uint256"
        },
        {
          "internalType": "uint256",
          "name": "fiatStaked",
          "type": "uint256"
        },
        {
          "internalType": "uint256",
          "name": "lastStakedTimestamp",
          "type": "uint256"
        }
      ],
      "stateMutability": "view",
      "type": "function",
      "constant": true
    },
    {
      "inputs": [
        {
          "internalType": "address",
          "name": "newOwner",
          "type": "address"
        }
      ],
      "name": "transferOwnership",
      "outputs": [],
      "stateMutability": "nonpayable",
      "type": "function"
    },
    {
      "inputs": [
        {
          "internalType": "string",
          "name": "_description",
          "type": "string"
        }
      ],
      "name": "createProposal",
      "outputs": [
        {
          "internalType": "uint256",
          "name": "",
          "type": "uint256"
        }
      ],
      "stateMutability": "nonpayable",
      "type": "function"
    },
    {
      "inputs": [],
      "name": "getProposals",
      "outputs": [
        {
          "components": [
            {
              "internalType": "uint256",
              "name": "Id",
              "type": "uint256"
            },
            {
              "internalType": "string",
              "name": "description",
              "type": "string"
            },
            {
              "internalType": "address",
              "name": "creator",
              "type": "address"
            },
            {
              "internalType": "uint256",
              "name": "forVotes",
              "type": "uint256"
            },
            {
              "internalType": "uint256",
              "name": "againstVotes",
              "type": "uint256"
            },
            {
              "internalType": "bool",
              "name": "executed",
              "type": "bool"
            },
            {
              "internalType": "bool",
              "name": "revoked",
              "type": "bool"
            },
            {
              "internalType": "bool",
              "name": "queued",
              "type": "bool"
            }
          ],
          "internalType": "struct GrantGovernance.Proposals[]",
          "name": "",
          "type": "tuple[]"
        }
      ],
      "stateMutability": "view",
      "type": "function",
      "constant": true
    },
    {
      "inputs": [
        {
          "internalType": "uint256",
          "name": "_proposalId",
          "type": "uint256"
        },
        {
          "internalType": "bool",
          "name": "_inFavor",
          "type": "bool"
        }
      ],
      "name": "vote",
      "outputs": [],
      "stateMutability": "nonpayable",
      "type": "function"
    },
    {
      "inputs": [
        {
          "internalType": "uint256",
          "name": "_proposalId",
          "type": "uint256"
        }
      ],
      "name": "executeProposal",
      "outputs": [],
      "stateMutability": "nonpayable",
      "type": "function"
    },
    {
      "inputs": [
        {
          "internalType": "uint256",
          "name": "_proposalId",
          "type": "uint256"
        },
        {
          "internalType": "uint256",
          "name": "_amount",
          "type": "uint256"
        }
      ],
      "name": "stakeTokens",
      "outputs": [],
      "stateMutability": "nonpayable",
      "type": "function"
    }
  ],
  "bytecode": "0x608060405234801561000f575f80fd5b505f61001f6100c060201b60201c565b9050805f806101000a81548173ffffffffffffffffffffffffffffffffffffffff021916908373ffffffffffffffffffffffffffffffffffffffff1602179055508073ffffffffffffffffffffffffffffffffffffffff165f73ffffffffffffffffffffffffffffffffffffffff167f8be0079c531659141344cd1fd0a4f28419497f9722a3daafe3b4186f6b6457e060405160405180910390a3506100c7565b5f33905090565b612232806100d45f395ff3fe608060405234801561000f575f80fd5b50600436106100a7575f3560e01c8063715018a61161006f578063715018a614610168578063817c18d4146101725780638da5cb5b146101a4578063c9d27afe146101c2578063d4f910a7146101de578063f2fde38b14610210576100a7565b8063013cf08b146100ab5780630d61b519146100e25780633b7b6188146100fe57806349c2a1a61461011a57806362564c481461014a575b5f80fd5b6100c560048036038101906100c091906112ab565b61022c565b6040516100d99897969594939291906113c8565b60405180910390f35b6100fc60048036038101906100f791906112ab565b61034a565b005b6101186004803603810190610113919061144b565b61057f565b005b610134600480360381019061012f91906115b5565b6108ca565b60405161014191906115fc565b60405180910390f35b610152610a6e565b60405161015f91906117f2565b60405180910390f35b610170610c1d565b005b61018c6004803603810190610187919061183c565b610d6b565b60405161019b9392919061187a565b60405180910390f35b6101ac610d9c565b6040516101b991906118af565b60405180910390f35b6101dc60048036038101906101d791906118f2565b610dc3565b005b6101f860048036038101906101f39190611930565b611065565b604051610207939291906119ce565b60405180910390f35b61022a60048036038101906102259190611930565b6110a3565b005b6003818154811061023b575f80fd5b905f5260205f2090600602015f91509050805f01549080600101805461026090611a30565b80601f016020809104026020016040519081016040528092919081815260200182805461028c90611a30565b80156102d75780601f106102ae576101008083540402835291602001916102d7565b820191905f5260205f20905b8154815290600101906020018083116102ba57829003601f168201915b505050505090806002015f9054906101000a900473ffffffffffffffffffffffffffffffffffffffff1690806003015490806004015490806005015f9054906101000a900460ff16908060050160019054906101000a900460ff16908060050160029054906101000a900460ff16905088565b6003805490508110610391576040517f08c379a000000000000000000000000000000000000000000000000000000000815260040161038890611aaa565b60405180910390fd5b600381815481106103a5576103a4611ac8565b5b905f5260205f20906006020160050160029054906101000a900460ff1615610402576040517f08c379a00000000000000000000000000000000000000000000000000000000081526004016103f990611b3f565b60405180910390fd5b6003818154811061041657610415611ac8565b5b905f5260205f20906006020160050160019054906101000a900460ff1615610473576040517f08c379a000000000000000000000000000000000000000000000000000000000815260040161046a90611ba7565b60405180910390fd5b6003818154811061048757610486611ac8565b5b905f5260205f2090600602016005015f9054906101000a900460ff16156104e3576040517f08c379a00000000000000000000000000000000000000000000000000000000081526004016104da90611c0f565b60405180910390fd5b5f600382815481106104f8576104f7611ac8565b5b905f5260205f2090600602019050806004015481600301541115610533576001816005015f6101000a81548160ff0219169083151502179055505b817f948f4a9cd986f1118c3fbd459f7a22b23c0693e1ca3ef06a6a8be5aa7d39cc03826005015f9054906101000a900460ff166040516105739190611c2d565b60405180910390a25050565b5f81116105c1576040517f08c379a00000000000000000000000000000000000000000000000000000000081526004016105b890611c90565b60405180910390fd5b600382815481106105d5576105d4611ac8565b5b905f5260205f20906006020160050160029054906101000a900460ff1615610632576040517f08c379a000000000000000000000000000000000000000000000000000000000815260040161062990611b3f565b60405180910390fd5b6003828154811061064657610645611ac8565b5b905f5260205f20906006020160050160019054906101000a900460ff16156106a3576040517f08c379a000000000000000000000000000000000000000000000000000000000815260040161069a90611ba7565b60405180910390fd5b600382815481106106b7576106b6611ac8565b5b905f5260205f2090600602016005015f9054906101000a900460ff1615610713576040517f08c379a000000000000000000000000000000000000000000000000000000000815260040161070a90611cf8565b60405180910390fd5b8060015f3373ffffffffffffffffffffffffffffffffffffffff1673ffffffffffffffffffffffffffffffffffffffff1681526020019081526020015f206001015f8282546107629190611d43565b925050819055508060025f8481526020019081526020015f205f3373ffffffffffffffffffffffffffffffffffffffff1673ffffffffffffffffffffffffffffffffffffffff1681526020019081526020015f205f015f8282546107c69190611d43565b925050819055504260025f8481526020019081526020015f205f3373ffffffffffffffffffffffffffffffffffffffff1673ffffffffffffffffffffffffffffffffffffffff1681526020019081526020015f20600201819055506001805f3373ffffffffffffffffffffffffffffffffffffffff1673ffffffffffffffffffffffffffffffffffffffff1681526020019081526020015f205f015f6101000a81548160ff0219169083151502179055503373ffffffffffffffffffffffffffffffffffffffff16827f3c2905e5cda90fbc3e1296ec4bc49130e39b6203bb1d13b4a855ced4d920e16f836040516108be91906115fc565b60405180910390a35050565b5f80600380549050905060036040518061010001604052808381526020018581526020013373ffffffffffffffffffffffffffffffffffffffff1681526020015f81526020015f81526020015f151581526020015f151581526020015f1515815250908060018154018082558091505060019003905f5260205f2090600602015f909190919091505f820151815f0155602082015181600101908161096f9190611f13565b506040820151816002015f6101000a81548173ffffffffffffffffffffffffffffffffffffffff021916908373ffffffffffffffffffffffffffffffffffffffff160217905550606082015181600301556080820151816004015560a0820151816005015f6101000a81548160ff02191690831515021790555060c08201518160050160016101000a81548160ff02191690831515021790555060e08201518160050160026101000a81548160ff0219169083151502179055505050807fc8c078bfee58e5822588f08b4509ed1eb5058e03f666cca84dd2d44bf5c288a88433604051610a5d929190611fe2565b60405180910390a280915050919050565b60606003805480602002602001604051908101604052809291908181526020015f905b82821015610c14578382905f5260205f209060060201604051806101000160405290815f8201548152602001600182018054610acc90611a30565b80601f0160208091040260200160405190810160405280929190818152602001828054610af890611a30565b8015610b435780601f10610b1a57610100808354040283529160200191610b43565b820191905f5260205f20905b815481529060010190602001808311610b2657829003601f168201915b50505050508152602001600282015f9054906101000a900473ffffffffffffffffffffffffffffffffffffffff1673ffffffffffffffffffffffffffffffffffffffff1673ffffffffffffffffffffffffffffffffffffffff1681526020016003820154815260200160048201548152602001600582015f9054906101000a900460ff161515151581526020016005820160019054906101000a900460ff161515151581526020016005820160029054906101000a900460ff16151515158152505081526020019060010190610a91565b50505050905090565b610c25611260565b73ffffffffffffffffffffffffffffffffffffffff165f8054906101000a900473ffffffffffffffffffffffffffffffffffffffff1673ffffffffffffffffffffffffffffffffffffffff1614610cb1576040517f08c379a0000000000000000000000000000000000000000000000000000000008152600401610ca89061205a565b60405180910390fd5b5f73ffffffffffffffffffffffffffffffffffffffff165f8054906101000a900473ffffffffffffffffffffffffffffffffffffffff1673ffffffffffffffffffffffffffffffffffffffff167f8be0079c531659141344cd1fd0a4f28419497f9722a3daafe3b4186f6b6457e060405160405180910390a35f805f6101000a81548173ffffffffffffffffffffffffffffffffffffffff021916908373ffffffffffffffffffffffffffffffffffffffff160217905550565b6002602052815f5260405f20602052805f5260405f205f9150915050805f0154908060010154908060020154905083565b5f805f9054906101000a900473ffffffffffffffffffffffffffffffffffffffff16905090565b60015f3373ffffffffffffffffffffffffffffffffffffffff1673ffffffffffffffffffffffffffffffffffffffff1681526020019081526020015f205f015f9054906101000a900460ff16610e4e576040517f08c379a0000000000000000000000000000000000000000000000000000000008152600401610e45906120c2565b60405180910390fd5b6003805490508210610e95576040517f08c379a0000000000000000000000000000000000000000000000000000000008152600401610e8c90611aaa565b60405180910390fd5b60038281548110610ea957610ea8611ac8565b5b905f5260205f20906006020160050160029054906101000a900460ff1615610f06576040517f08c379a0000000000000000000000000000000000000000000000000000000008152600401610efd90611b3f565b60405180910390fd5b60038281548110610f1a57610f19611ac8565b5b905f5260205f20906006020160050160019054906101000a900460ff16158015610f71575060038281548110610f5357610f52611ac8565b5b905f5260205f2090600602016005015f9054906101000a900460ff16155b610fb0576040517f08c379a0000000000000000000000000000000000000000000000000000000008152600401610fa790612150565b60405180910390fd5b5f60038381548110610fc557610fc4611ac8565b5b905f5260205f20906006020190508115610ff75760018160030154610fea9190611d43565b8160030181905550611011565b600181600401546110089190611d43565b81600401819055505b3373ffffffffffffffffffffffffffffffffffffffff16837ff2913dbe661ee2acc4a046d8fbcdc792373bda34c41c6086484b5345e5785e5f846040516110589190611c2d565b60405180910390a3505050565b6001602052805f5260405f205f91509050805f015f9054906101000a900460ff1690805f0160019054906101000a900460ff16908060010154905083565b6110ab611260565b73ffffffffffffffffffffffffffffffffffffffff165f8054906101000a900473ffffffffffffffffffffffffffffffffffffffff1673ffffffffffffffffffffffffffffffffffffffff1614611137576040517f08c379a000000000000000000000000000000000000000000000000000000000815260040161112e9061205a565b60405180910390fd5b5f73ffffffffffffffffffffffffffffffffffffffff168173ffffffffffffffffffffffffffffffffffffffff16036111a5576040517f08c379a000000000000000000000000000000000000000000000000000000000815260040161119c906121de565b60405180910390fd5b8073ffffffffffffffffffffffffffffffffffffffff165f8054906101000a900473ffffffffffffffffffffffffffffffffffffffff1673ffffffffffffffffffffffffffffffffffffffff167f8be0079c531659141344cd1fd0a4f28419497f9722a3daafe3b4186f6b6457e060405160405180910390a3805f806101000a81548173ffffffffffffffffffffffffffffffffffffffff021916908373ffffffffffffffffffffffffffffffffffffffff16021790555050565b5f33905090565b5f604051905090565b5f80fd5b5f80fd5b5f819050919050565b61128a81611278565b8114611294575f80fd5b50565b5f813590506112a581611281565b92915050565b5f602082840312156112c0576112bf611270565b5b5f6112cd84828501611297565b91505092915050565b6112df81611278565b82525050565b5f81519050919050565b5f82825260208201905092915050565b5f5b8381101561131c578082015181840152602081019050611301565b5f8484015250505050565b5f601f19601f8301169050919050565b5f611341826112e5565b61134b81856112ef565b935061135b8185602086016112ff565b61136481611327565b840191505092915050565b5f73ffffffffffffffffffffffffffffffffffffffff82169050919050565b5f6113988261136f565b9050919050565b6113a88161138e565b82525050565b5f8115159050919050565b6113c2816113ae565b82525050565b5f610100820190506113dc5f83018b6112d6565b81810360208301526113ee818a611337565b90506113fd604083018961139f565b61140a60608301886112d6565b61141760808301876112d6565b61142460a08301866113b9565b61143160c08301856113b9565b61143e60e08301846113b9565b9998505050505050505050565b5f806040838503121561146157611460611270565b5b5f61146e85828601611297565b925050602061147f85828601611297565b9150509250929050565b5f80fd5b5f80fd5b7f4e487b71000000000000000000000000000000000000000000000000000000005f52604160045260245ffd5b6114c782611327565b810181811067ffffffffffffffff821117156114e6576114e5611491565b5b80604052505050565b5f6114f8611267565b905061150482826114be565b919050565b5f67ffffffffffffffff82111561152357611522611491565b5b61152c82611327565b9050602081019050919050565b828183375f83830152505050565b5f61155961155484611509565b6114ef565b9050828152602081018484840111156115755761157461148d565b5b611580848285611539565b509392505050565b5f82601f83011261159c5761159b611489565b5b81356115ac848260208601611547565b91505092915050565b5f602082840312156115ca576115c9611270565b5b5f82013567ffffffffffffffff8111156115e7576115e6611274565b5b6115f384828501611588565b91505092915050565b5f60208201905061160f5f8301846112d6565b92915050565b5f81519050919050565b5f82825260208201905092915050565b5f819050602082019050919050565b61164781611278565b82525050565b5f82825260208201905092915050565b5f611667826112e5565b611671818561164d565b93506116818185602086016112ff565b61168a81611327565b840191505092915050565b61169e8161138e565b82525050565b6116ad816113ae565b82525050565b5f61010083015f8301516116c95f86018261163e565b50602083015184820360208601526116e1828261165d565b91505060408301516116f66040860182611695565b506060830151611709606086018261163e565b50608083015161171c608086018261163e565b5060a083015161172f60a08601826116a4565b5060c083015161174260c08601826116a4565b5060e083015161175560e08601826116a4565b508091505092915050565b5f61176b83836116b3565b905092915050565b5f602082019050919050565b5f61178982611615565b611793818561161f565b9350836020820285016117a58561162f565b805f5b858110156117e057848403895281516117c18582611760565b94506117cc83611773565b925060208a019950506001810190506117a8565b50829750879550505050505092915050565b5f6020820190508181035f83015261180a818461177f565b905092915050565b61181b8161138e565b8114611825575f80fd5b50565b5f8135905061183681611812565b92915050565b5f806040838503121561185257611851611270565b5b5f61185f85828601611297565b925050602061187085828601611828565b9150509250929050565b5f60608201905061188d5f8301866112d6565b61189a60208301856112d6565b6118a760408301846112d6565b949350505050565b5f6020820190506118c25f83018461139f565b92915050565b6118d1816113ae565b81146118db575f80fd5b50565b5f813590506118ec816118c8565b92915050565b5f806040838503121561190857611907611270565b5b5f61191585828601611297565b9250506020611926858286016118de565b9150509250929050565b5f6020828403121561194557611944611270565b5b5f61195284828501611828565b91505092915050565b7f4e487b71000000000000000000000000000000000000000000000000000000005f52602160045260245ffd5b600481106119995761199861195b565b5b50565b5f8190506119a982611988565b919050565b5f6119b88261199c565b9050919050565b6119c8816119ae565b82525050565b5f6060820190506119e15f8301866113b9565b6119ee60208301856119bf565b6119fb60408301846112d6565b949350505050565b7f4e487b71000000000000000000000000000000000000000000000000000000005f52602260045260245ffd5b5f6002820490506001821680611a4757607f821691505b602082108103611a5a57611a59611a03565b5b50919050565b7f496e76616c69642070726f706f73616c204964000000000000000000000000005f82015250565b5f611a946013836112ef565b9150611a9f82611a60565b602082019050919050565b5f6020820190508181035f830152611ac181611a88565b9050919050565b7f4e487b71000000000000000000000000000000000000000000000000000000005f52603260045260245ffd5b7f50726f706f73616c2069732071756575656400000000000000000000000000005f82015250565b5f611b296012836112ef565b9150611b3482611af5565b602082019050919050565b5f6020820190508181035f830152611b5681611b1d565b9050919050565b7f50726f706f73616c206973207265766f6b6564200000000000000000000000005f82015250565b5f611b916014836112ef565b9150611b9c82611b5d565b602082019050919050565b5f6020820190508181035f830152611bbe81611b85565b9050919050565b7f50726f706f73616c2069732065786563757465642000000000000000000000005f82015250565b5f611bf96015836112ef565b9150611c0482611bc5565b602082019050919050565b5f6020820190508181035f830152611c2681611bed565b9050919050565b5f602082019050611c405f8301846113b9565b92915050565b7f416d6f756e742073686f756c642062652067726561746572207468616e2030005f82015250565b5f611c7a601f836112ef565b9150611c8582611c46565b602082019050919050565b5f6020820190508181035f830152611ca781611c6e565b9050919050565b7f50726f706f73616c20697320616c7265616479206578656375746564200000005f82015250565b5f611ce2601d836112ef565b9150611ced82611cae565b602082019050919050565b5f6020820190508181035f830152611d0f81611cd6565b9050919050565b7f4e487b71000000000000000000000000000000000000000000000000000000005f52601160045260245ffd5b5f611d4d82611278565b9150611d5883611278565b9250828201905080821115611d7057611d6f611d16565b5b92915050565b5f819050815f5260205f209050919050565b5f6020601f8301049050919050565b5f82821b905092915050565b5f60088302611dd27fffffffffffffffffffffffffffffffffffffffffffffffffffffffffffffffff82611d97565b611ddc8683611d97565b95508019841693508086168417925050509392505050565b5f819050919050565b5f611e17611e12611e0d84611278565b611df4565b611278565b9050919050565b5f819050919050565b611e3083611dfd565b611e44611e3c82611e1e565b848454611da3565b825550505050565b5f90565b611e58611e4c565b611e63818484611e27565b505050565b5b81811015611e8657611e7b5f82611e50565b600181019050611e69565b5050565b601f821115611ecb57611e9c81611d76565b611ea584611d88565b81016020851015611eb4578190505b611ec8611ec085611d88565b830182611e68565b50505b505050565b5f82821c905092915050565b5f611eeb5f1984600802611ed0565b1980831691505092915050565b5f611f038383611edc565b9150826002028217905092915050565b611f1c826112e5565b67ffffffffffffffff811115611f3557611f34611491565b5b611f3f8254611a30565b611f4a828285611e8a565b5f60209050601f831160018114611f7b575f8415611f69578287015190505b611f738582611ef8565b865550611fda565b601f198416611f8986611d76565b5f5b82811015611fb057848901518255600182019150602085019450602081019050611f8b565b86831015611fcd5784890151611fc9601f891682611edc565b8355505b6001600288020188555050505b505050505050565b5f6040820190508181035f830152611ffa8185611337565b9050612009602083018461139f565b9392505050565b7f4f776e61626c653a2063616c6c6572206973206e6f7420746865206f776e65725f82015250565b5f6120446020836112ef565b915061204f82612010565b602082019050919050565b5f6020820190508181035f83015261207181612038565b9050919050565b7f596f75206172656e277420616e2061637469766520636974697a656e000000005f82015250565b5f6120ac601c836112ef565b91506120b782612078565b602082019050919050565b5f6020820190508181035f8301526120d9816120a0565b9050919050565b7f50726f706f73616c206973207265766f6b6564206f7220616c726561647920655f8201527f7865637574656400000000000000000000000000000000000000000000000000602082015250565b5f61213a6027836112ef565b9150612145826120e0565b604082019050919050565b5f6020820190508181035f8301526121678161212e565b9050919050565b7f4f776e61626c653a206e6577206f776e657220697320746865207a65726f20615f8201527f6464726573730000000000000000000000000000000000000000000000000000602082015250565b5f6121c86026836112ef565b91506121d38261216e565b604082019050919050565b5f6020820190508181035f8301526121f5816121bc565b905091905056fea2646970667358221220a8489440510895904777b7fa05a76da765611814be834eb7a54e09b39c7f471b64736f6c63430008150033",
  "immutableReferences": {},
  "source": "pragma solidity 0.8.21;\npragma abicoder v2;\n\nimport {Ownable} from './dependencies/open-zeppelin/Ownable.sol';\nimport {SafeMath} from './dependencies/open-zeppelin/SafeMath.sol';\n\n/**  @title Grant Governance Contract\n\n* - Create a proposal \n* - Revoke a proposal\n* - Queue a proposal\n* - Submit Vote to a proposal\n* - Stake ERC20 tokens or fiat currency for a proposal to gain voting powers\n* - Adjust voting powers based on tokens staked.\n\n**/\n\ncontract GrantGovernance is Ownable {\n\n    struct Proposals{\n        uint256 Id;\n        string description;\n        address creator;\n        uint256 forVotes;\n        uint256 againstVotes;\n        bool executed;\n        bool revoked;\n        bool queued;\n\n    }\n\n    enum CitizenStatus{\n       NEWBIE,\n       VOTER,\n       NOMINATOR,\n       AMBASSADOR\n    }\n\n    struct Citizen {\n\n        bool isActive;\n        CitizenStatus status;\n        uint256 votingPower;\n    }\n\n    struct StakePerCitizen{\n        uint256 tokensStaked;\n        uint256 fiatStaked;\n        uint256 lastStakedTimestamp;\n    }\n    \n\n    mapping (address => Citizen) public citizens;\n\n    // every proposal will have map of stakes for citizens that have staked tokens\n    mapping (uint256 => mapping (address => StakePerCitizen)) public stakePerCitizen;\n\n    Proposals[] public  proposals;\n\n    event ProposalCreated (uint256 indexed proposalId, string description, address creator);\n    event Voted (uint256 indexed proposalId, address indexed voter, bool inFavor);\n    event ProposalExecuted (uint256 indexed proposalId, bool executed);\n    event TokensStaked (uint256 indexed proposalId, address indexed staker, uint256 amount);\n\n    function createProposal (string memory _description) public returns (uint256){\n        uint proposalId = proposals.length;\n        proposals.push(Proposals(proposalId, _description, msg.sender, 0, 0, false, false, false ));\n        emit ProposalCreated (proposalId, _description, msg.sender);\n        return proposalId;\n    }\n\n    function getProposals () public view returns (Proposals [] memory){\n        return proposals;\n    }\n\n    function vote  (uint256 _proposalId, bool _inFavor) public  {\n        \n        require (citizens[msg.sender].isActive, \"You aren't an active citizen\");\n        require (_proposalId < proposals.length, \"Invalid proposal Id\");\n        require (!proposals[_proposalId].queued, \"Proposal is queued\");\n\n        require (!proposals[_proposalId].revoked && !proposals[_proposalId].executed, \"Proposal is revoked or already executed\");\n\n        Proposals storage proposal = proposals[_proposalId];\n\n        if (_inFavor) {\n            proposal.forVotes = proposal.forVotes + 1;\n        }else {\n            proposal.againstVotes = proposal.againstVotes + 1;\n        }\n\n        emit Voted(_proposalId, msg.sender, _inFavor);\n    }\n\n    function executeProposal (uint256 _proposalId) public {\n\n        require (_proposalId < proposals.length, \"Invalid proposal Id\");\n        require (!proposals[_proposalId].queued, \"Proposal is queued\");\n\n        require (!proposals[_proposalId].revoked, \"Proposal is revoked \");\n        require (!proposals[_proposalId].executed, \"Proposal is executed \");\n\n        Proposals storage proposal = proposals[_proposalId];\n\n        if (proposal.forVotes > proposal.againstVotes){\n            proposal.executed = true;\n        }\n\n        emit ProposalExecuted (_proposalId, proposal.executed);\n    }\n\n    function stakeTokens (uint256 _proposalId, uint256 _amount) public{\n\n        require (_amount > 0, \"Amount should be greater than 0\");\n        require (!proposals[_proposalId].queued, \"Proposal is queued\");\n\n        require (!proposals[_proposalId].revoked, \"Proposal is revoked \");\n        require (!proposals[_proposalId].executed, \"Proposal is already executed \");\n\n        citizens[msg.sender].votingPower += _amount;\n        stakePerCitizen[_proposalId][msg.sender].tokensStaked += _amount;\n        stakePerCitizen[_proposalId][msg.sender].lastStakedTimestamp = block.timestamp;\n        citizens[msg.sender].isActive = true;\n        \n        emit TokensStaked (_proposalId, msg.sender, _amount);\n    }\n\n}",
  "sourcePath": "/Users/shreedharpawar/Buidl/renaissance-contracts/contracts/grantGovernance.sol",
  "compiler": {
    "name": "solc",
    "version": "0.8.21+commit.d9974bed.Emscripten.clang"
  },
  "schemaVersion": "3.4.16",
  "updatedAt": "2024-03-01T20:25:18.943Z",
  "networkType": "ethereum",
  "devdoc": {
    "kind": "dev",
    "methods": {
      "owner()": {
        "details": "Returns the address of the current owner."
      },
      "renounceOwnership()": {
        "details": "Leaves the contract without owner. It will not be possible to call `onlyOwner` functions anymore. Can only be called by the current owner. NOTE: Renouncing ownership will leave the contract without an owner, thereby removing any functionality that is only available to the owner."
      },
      "transferOwnership(address)": {
        "details": "Transfers ownership of the contract to a new account (`newOwner`). Can only be called by the current owner."
      }
    },
    "title": "Grant Governance Contract - Create a proposal  - Revoke a proposal - Queue a proposal - Submit Vote to a proposal - Stake ERC20 tokens or fiat currency for a proposal to gain voting powers - Adjust voting powers based on tokens staked.*",
    "version": 1
  },
  "userdoc": {
    "kind": "user",
    "methods": {},
    "version": 1
  }
}